:100000000C9436040C947D040C947D040C947D04B3
:100010000C947D040C947D040C947D040C947D045C
:100020000C947D040C947D040C940A1F0C94DD1F29
:100030000C9417160C947D040C947D040C947D0490
:100040000C947D040C947D040C947D040C947D042C
:100050000C947D040C9478160C947D040C947D040F
:100060000C947D040C947D040C947D040C947D040C
:100070000C947D040C947D040C947D040C947D04FC
:100080000C947D040C947D040C947D040C947D04EC
:100090000C947D040C947D040C947D040C947D04DC
:1000A0000C947D040C947D040C947D0401160216BE
:1000B00001040204010F020F0118021801170217B0
:1000C00000290014001A000800150017001C001871
:1000D000000C00120013002A002B00040016000779
:1000E0000009000A000B000D000E000F0033000194
:1000F00000E1001D001B00060019000500110010A2
:10010000003600370038002800E000E300E200007D
:100110003010502C002C00115050004F0052005154
:100120000035001E001F00200021002200230024B3
:10013000002500260027002D023A003B003C003D30
:10014000003E003F004000410042004300440045A3
:1001500000010024021F00A80001000100010001AD
:100160000001002F0030002E0001000100010001FD
:10017000001050010001001150010001004B004E21
:100180000001000100010001000100010001000167
:100190000001000100010001000100010001000157
:1001A0000001000100010001000100010001000147
:1001B0000001000100010001000100010001000137
:1006C0000012036B006500790062006F0061007228
:1006D0000064000000160371006D006B006200757D
:1006E0000069006C006400650072000000040309EA
:1006F0000409026D00040100A0FA090400000103CE
:1007000001010009211101000122400007058103B8
:1007100008000A0904010001030102000921110176
:100720000001224D000705820308000A09040200A7
:100730000103000000092111010001223600070514
:10074000830308000A0904030001030000000921D3
:100750001101000122390007058403200001120164
:10076000100100000008EDFE6060010001020001C0
:1007700005010906A101050719E029E71500250172
:10078000950875018102050819012905950575016E
:1007900091029501750391010507190029F71500CC
:1007A000250195F875018102C005010980A1018527
:1007B000021601002603001A81002A830075109595
:1007C000018100C0050C0901A10185031601002665
:1007D0009C021A01002A9C02751095018100C00537
:1007E000010902A1010901A1000509190129051545
:1007F00000250195057501810295017503810105AB
:1008000001093009311581257F9502750881060996
:10081000381581257F950175088106050C0A380277
:100820001581257F950175088106C0C0050109065F
:10083000A101050719E029E71500250195087501B3
:1008400081029501750881010508190129059505A1
:10085000750191029501750391010507190029FFA2
:10086000150026FF00950675088100C011241FBEE3
:10087000CFEFDAE0DEBFCDBF04B603FE27C0809124
:10088000300290913102A0913202B0913302873050
:10089000904BA740B04BD1F410923002109231022D
:1008A000109232021092330214BE84B7877F84BF45
:1008B0000FB6F894A89580916000886180936000DD
:1008C000109260000FBEE0E0F8E3099511E0A0E0AF
:1008D000B1E0E4E9F6E402C005900D92A833B10757
:1008E000D9F722E0A8E3B1E001C01D92A033B2071E
:1008F000E1F70E94601C0C941C230C940000FC0186
:10090000611106C08281882319F08CEA90E0089575
:1009100090E080E008950895089581E00895089595
:1009200081E008950C948D040E94680E2FEF84E3FB
:100930009CE0215080409040E1F700C000000C9402
:100940009B16EF92FF920F931F93CF93DF938C012F
:10095000FC01E080F18080916C01811140C08281B6
:100960008823C1F1C7010E94ED13C82F682FC7016A
:100970000E949613B7018C2F0E94D905EC01B80193
:100980000E949204882309F44BC0B801CE010E9452
:10099000E207882309F444C0C531F0E7DF0720F5FA
:1009A000C23080E7D80708F04DC0C115E0E7DE0788
:1009B00091F1C130D047E1F181E080933A01809319
:1009C0003B01C801DF91CF911F910F91FF90EF90F4
:1009D0000C949004C7010E94C413C82FCBCFC70149
:1009E0000E94ED13B701C8CFCC3380E7D80709F4D4
:1009F0009BC0CD33D04701F7F8018281882309F4E9
:100A0000BAC010923B010E9447169093390180931F
:100A1000380180E296C0F801828181110E9494041D
:100A200080E0DF91CF911F910F91FF90EF9008959B
:100A3000F80182818823A1F38091F0018160809385
:100A4000F001EECFF8018281882309F4BACF0E9429
:100A5000A815811102C00E948E150E94C51590E054
:100A60009093220280932102FE01E350F04780918F
:100A700021028160E231F10538F4E25EFC4D0C9414
:100A8000CC228091210282608093210280912102F8
:100A90000E94C9150E94680EC3CF80912102846014
:100AA000F3CF809121028860EFCF80912102806195
:100AB000EBCF809121028062E7CF80912102806498
:100AC000E3CF809121028068DFCF809121028C608A
:100AD000DBCF809121028E7FD7CF809121028D7F45
:100AE000D3CF809121028B7FCFCF80912102877F4E
:100AF000CBCF809121028F7EC7CF809121028F7D45
:100B0000C3CF809121028F7BBFCF809121028F774D
:100B1000BBCF80912102837FB7CF90912102892F93
:100B200097FB87F98058B0CFF8018281882361F064
:100B300010923A010E944716909339018093380130
:100B400082E00E94CD0B6CCF80913A0181110FC0E1
:100B500080913801909139010E945316883C91058B
:100B600030F486E20E94A20A86E20E947E0B82E0B6
:100B70000E94D40B55CF80913B0181110FC0809111
:100B80003801909139010E945316883C910530F448
:100B900087E20E94A20A87E20E947E0B80E2E8CFF1
:100BA0000C9431080C9433080C948F040C94D405E5
:100BB0000895972F70E02CE0929F600D711D112415
:100BC000FB0190E3899FE00DF11D1124EE0FFF1F43
:100BD000EF53FF4F859194910895FC01EE0FFF1F95
:100BE000EF53F94F8591949108950E94D9050E9481
:100BF00066079C01811540E4940708F097C0211511
:100C000080E3380708F0FAC0203E310508F074C0D0
:100C1000203C310508F0E5C0283A310588F4253A32
:100C2000310508F0E2C02130310509F477C0C9016F
:100C30000497813A910508F471C030E020E06EC05D
:100C4000C901885A91094597C0F7283A310509F436
:100C5000FEC0293A310509F4FDC02A3A310509F4EC
:100C6000FCC02B3A310509F4FBC02C3A310509F4DC
:100C7000FAC02B3B310509F4F9C02C3B310509F4CE
:100C8000F8C02D3A310509F4F7C0203B310509F4CD
:100C9000F6C02E3A310509F4F5C02F3A310509F4B2
:100CA000F4C0213B310509F4F3C0223B310509F4BE
:100CB000F2C0233B310509F4F1C0243B310509F4AE
:100CC000F0C0253B310509F4EFC0263B310509F49E
:100CD000EEC0273B310509F4EDC0283B310509F48E
:100CE000ECC0293B310509F4EBC02A3B310509F47E
:100CF000EAC020E034E412C0211590E2390780F404
:100D00002F3F310509F050F4283E310538F0C90174
:100D1000805F91093065409708F08FCFC901089531
:100D2000C9019F700E94ED059C01F8CF8115944583
:100D300008F041C0211583E5380708F06AC0211585
:100D400092E5390738F5211541E5340708F05CC014
:100D5000211580E5380708F454C0C90134E09695A0
:100D600087953A95E1F78370422F469546954370F3
:100D700090E2499FA0011124582B822F837021E01B
:100D800030E002C0220F331F8A95E2F7242B352B67
:100D90003C68C4CFC9018370992741E050E002C08C
:100DA000440F551F8A95E2F72695269580E2289FE5
:100DB00090011124EBCF211596E5390748F4922FC5
:100DC000882721153545C8F59C01246F306AA6CFC8
:100DD000C90190563F708115904108F02ECF3062C6
:100DE0009DCFC901805C91099DCF253A310549F11C
:100DF000263A310549F522E830E490CF3327306CAC
:100E00008DCF3F70306A8ACF322F2227216F306A10
:100E100085CFC9018370992741E050E002C0440F9B
:100E2000551F8A95E2F72695269580E2289F900126
:100E30001124242B352B3A6871CF88279F719C0190
:100E4000CECF21E830E46ACF23E830E467CF22EE4A
:100E500034E464CF29EE34E461CF2AEE34E45ECF8B
:100E600025EB34E45BCF26EB34E458CF23EB34E4BA
:100E700055CF24EB34E452CF27EB34E44FCF2CECA6
:100E800034E44CCF2DEC34E449CF23E835E446CFAD
:100E90002AE835E443CF22E935E440CF24E935E4BC
:100EA0003DCF21E236E43ACF23E236E437CF24E2E5
:100EB00036E434CF25E236E431CF26E236E42ECFD5
:100EC00027E236E42BCF2AE236E428CF803E910594
:100ED00081F1C8F48133910509F462C048F4893284
:100EE000910509F456C08A32910509F460C008954D
:100EF00089339105B9F082389105A1F085339105C8
:100F000009F440C00895863E910561F138F4823EAF
:100F10009105B1F0833E9105E1F00895873E91057A
:100F200051F10895209121022370D9F080EE90E0D4
:100F300008952091210220FF14C089E390E00895D4
:100F40002091210222FF0DC024FD09C083EE90E014
:100F500008952091210222FD31C024FF02C090E0BB
:100F600080E008952091210223FFFBCF24FDF7CFDD
:100F700087EE90E008952091210223FFEECF86EEC8
:100F800090E008952091210225FFEBCF89E290E0C7
:100F900008952091210225FFE4CF85E390E0089594
:100FA0002091210226FFDDCF8AE290E00895209172
:100FB000210226FFD6CF81E390E0089582EE90E0F3
:100FC000089508950F931F93CF938C01FB018281A5
:100FD000811106C0C1E08C2FCF911F910F91089510
:100FE000C0914901C11125C00531104799F70E94F0
:100FF000E10781E0809349010E94471690934801E0
:101000008093470110923C0110923E0110923D01E5
:101010001092400110923F01109242011092410142
:101020001092440110924301109246011092450122
:10103000D2CF80914701909148010E945316883C7D
:10104000910540F680913C01E82FF0E0EE0FFF1F84
:10105000E35CFE4F118300838F5F80933C01C0E00F
:10106000BACF0C948B040C948C04CF93DF9385B788
:10107000806885BF85B7806885BFAFE1B1E043E296
:1010800051E0C1E0D0E08D91E82FE295EF70F0E003
:1010900061A18F709E0101C0220F8A95EAF7922FFD
:1010A0009095962391A382A1822B82A34A175B0776
:1010B00051F7A3E1B1E04FE151E0C1E0D0E08D9103
:1010C000E82FE295EF70F0E061A18F709E0101C002
:1010D000220F8A95EAF7922F9095962391A382A1E9
:1010E000822B82A34A175B0751F71092530110928B
:1010F000520110924B0110924A0110925501109228
:10110000540110924D0110924C011092570110920F
:10111000560110924F0110924E01109259011092F7
:1011200058011092510110925001DF91CF910C940F
:10113000D0054F925F927F928F929F92AF92BF9213
:10114000CF92DF92EF92FF920F931F93CF93DF9393
:101150009AE4492E91E0592E2FE1E22E21E0F22E61
:1011600001E010E099249394E201A990B9902E0136
:10117000DE011E921E92F70181917F01E82FE29518
:10118000EF70F0E091A18F70980101C0220F8A9555
:10119000EAF7892F822B81A382A1822E8094882155
:1011A00082A380EA8A95F1F783E1C82E81E0D82EE8
:1011B00090E080E0E60179916E01472F42954F70F3
:1011C00050E0EA0178A04D915C9111977F70E801A1
:1011D00002C0CC0FDD1F7A95E2F7BE01672109F04E
:1011E0006AC0B801082E02C0660F771F0A94E2F7A2
:1011F000462B572B11965C934E9301968C3091059C
:10120000C9F681A1882281A282A1282B22A38D91D7
:101210009C91A816B90641F090925A010E94471677
:1012200090935C0180935B01D2E54D16D1E05D06A1
:1012300009F09ACF80915A01882351F180915B0186
:1012400090915C010E945316069710F180914A011B
:1012500090914B01909353018093520180914C01E6
:1012600090914D01909355018093540180914E01CE
:1012700090914F01909357018093560180915001B6
:1012800090915101909359018093580110925A0105
:101290000E94D20581E0DF91CF911F910F91FF90C5
:1012A000EF90DF90CF90BF90AF909F908F907F9006
:1012B0005F904F90089570E060E09ACFE82FF0E0E3
:1012C000EE0FFF1FEE5AFE4F808191810895089521
:1012D00090936201809361010895E0916101F09122
:1012E0006201309721F00190F081E02D099480E0B7
:1012F0000895E0916101F0916201309721F0028040
:10130000F381E02D09940895E0916101F09162016B
:10131000309721F00480F581E02D09940895209103
:101320005F01309160012817390771F090936001D7
:1013300080935F01E0916101F0916201309721F0AB
:101340000680F781E02D0994089520915D01309188
:101350005E012817390771F090935E0180935D015B
:10136000E0916101F0916201309721F00084F185F4
:10137000E02D0994089508950C94BB090E943E162F
:101380000E9435080C9408175F926F927F928F929B
:101390009F92AF92BF92CF92DF92EF92FF920F9304
:1013A0001F93CF93DF9300D000D00F92CDB7DEB75D
:1013B0000E94990894E6A92E91E0B92E10E000E071
:1013C00088248394912C502E802F0E945E097C01EA
:1013D000F501C190D1905F01C816D90609F45DC02E
:1013E0008091F00181FD0E94670990E080E0CE24A9
:1013F000DF243401082E02C0660C771C0A94E2F741
:10140000960126213721232B09F442C089835A8271
:10141000E620F72081E0EF2809F480E08B830E942A
:1014200047168160782F9D838C8349815A816B8117
:101430008D810E94790A000F111FF801EC59FE4FAF
:101440008081918168267926718260820E94B51917
:101450000E946D09909163018917B1F10E946D0995
:10146000809363010F900F900F900F900F90DF917A
:10147000CF911F910F91FF90EF90DF90CF90BF9091
:10148000AF909F908F907F906F905F900C94D60557
:1014900001968C30910509F0ACCF0F5F1F4F0430DF
:1014A000110509F090CF8FEF89838A831B820E94F8
:1014B00047168160782F9D838C8349815A816B8187
:1014C0008D810E94790AC2CF0F900F900F900F90DC
:1014D0000F90DF91CF911F910F91FF90EF90DF90D0
:1014E000CF90BF90AF909F908F907F906F905F90C4
:1014F0000895CF93DF93CDB7DEB72B970FB6F8944F
:10150000DEBF0FBECDBF4F83588769877A878B8731
:101510001E8285E0FE013796DE01119601900D9244
:101520008A95E1F749815A816B817C818D819E8109
:101530002B960FB6F894DEBF0FBECDBFDF91CF91D3
:101540000C94F010882309F4D8C0823871F40E94FA
:101550006D0981FDD2C089E30E9495140E945F1538
:1015600089E30E94D2140C945F15833859F40E94C9
:101570006D0980FDC2C083E50E9495140E945F152D
:1015800083E5EFCF843859F40E946D0982FDB5C020
:1015900087E40E9495140E945F1587E4E2CF9CEFD8
:1015A000980F913A18F40E949514DDCF90E2980FAD
:1015B000983050F4877091E001C0990F8A95EAF74E
:1015C000892F0E941615CFCF9BE5980F933070F4AA
:1015D000853A31F0863A39F083E890E00C948F092F
:1015E00081E890E0FBCF82E890E0F8CF98E5980F93
:1015F000953108F082C0883A09F440C0893A09F46C
:1016000040C08A3A09F440C08B3A09F440C08C3A91
:1016100009F440C08B3B09F440C08C3B09F440C046
:101620008D3A09F440C0803B09F440C08E3A09F479
:1016300040C08F3A09F440C0813B09F440C0823B6E
:1016400009F440C0833B09F440C0843B09F440C026
:10165000853B09F440C0863B09F440C0873B09F450
:1016600040C0883B09F440C0893B09F440C08A3B34
:1016700009F440C090E080E00C94A50982EE90E06F
:10168000FBCF89EE90E0F8CF8AEE90E0F5CF85EBC6
:1016900090E0F2CF86EB90E0EFCF83EB90E0ECCFE1
:1016A00084EB90E0E9CF87EB90E0E6CF8CEC90E024
:1016B000E3CF8DEC90E0E0CF83E891E0DDCF8AE8E6
:1016C00091E0DACF82E991E0D7CF84E991E0D4CFFD
:1016D00081E292E0D1CF83E292E0CECF84E292E049
:1016E000CBCF85E292E0C8CF86E292E0C5CF87E219
:1016F00092E0C2CF8AE292E0BFCF0895882309F436
:101700004BC0823871F40E946D0981FF45C089E3A6
:101710000E9495140E945F1589E30E94D2140C94D4
:101720005F15833859F40E946D0980FF35C083E549
:101730000E9495140E945F1583E5EFCF843859F419
:101740000E946D0982FF28C087E40E9495140E94C0
:101750005F1587E4E2CF9CEF980F913AF0F290E2A8
:10176000980F983050F4877091E001C0990F8A95D6
:10177000EAF7892F0E941C15D2CF9BE5980F933072
:1017800020F490E080E00C948F09885A853120F491
:1017900090E080E00C94A5090895882321F00E9430
:1017A00016150C945F150895882321F00E941C15CE
:1017B0000C945F1508958F929F92AF92BF92DF9223
:1017C000EF92FF920F931F93CF93DF9300D000D03F
:1017D0000F92CDB7DEB77C016D837983FC01058163
:1017E00002950F70128111110E9435150E948E14FE
:1017F000D82E882371F01123A1F08D81805E88306E
:1018000080F082E00E9478140E948E1491E0D82E1D
:10181000D926E981E295EF70F0E0E05DFC4D0C9493
:10182000CC22D12CF6CF09810F70F981F07F11F015
:101830000295007F1123B1F0002361F08D81805E5D
:10184000883018F02D81211109C0802F0E941615B3
:101850000E945F158D810E94A20A15C0802F0E94F0
:101860002715F6CF8D810E947E0B002361F08D81BC
:10187000805E883018F03D81311129C0802F0E9490
:101880001C150E945F15DD2009F4D3C10E946B1462
:1018900080FDCFC1F70112820E9465140E94AE1232
:1018A000C7010E942A0E0E9465140F900F900F909E
:1018B0000F900F90DF91CF911F910F91FF90EF90BC
:1018C000DF90BF90AF909F908F900C94D012802F9C
:1018D0000E942D15D6CF49814F70B42E5981507F6B
:1018E000503219F0B29480EFB8228D81882369F0CC
:1018F000813029F1112369F1002359F0F701858125
:1019000080FFA8CF8F70858304C0112361F001117F
:1019100004C08B2D0E94CD0BB6CF8B2D0130D1F79B
:101920000E944915B0CF011106C00E944C158B2DA5
:101930000E94D40BA8CF013009F4A5CFF6CF112314
:1019400021F0063008F09FCFE4CF053008F09BCFA0
:10195000EECF002361F38D810E947E0B94CF8981AD
:1019600086958695837069F0813009F08CCF8D81E2
:1019700099819370111102C090E080E00E94A50946
:1019800082CF8D8199819370111102C090E080E027
:101990000E948F0978CF8D81112329F00E94C318EE
:1019A0000E94AA1970CF0E942B19FACF89818370E7
:1019B00009F05FC0111167CF2D8122952695277000
:1019C000220F220F8D818F7090E0B0E0A0E04C01DB
:1019D0005D01022E04C0880C991CAA1CBB1C0A9431
:1019E000D2F7FD8160E070E0CB01F4FF0FC06FE043
:1019F00070E080E090E004C0660F771F881F991F99
:101A00002A95D2F7609570958095909529812695B5
:101A1000269523702D832230B1F0233019F19B01DC
:101A2000AC01282939294A295B2929833A834B8328
:101A30005C833D8169817A818B819C813130B1F0F9
:101A40000E943B1220CF9B01AC01282939294A2949
:101A50005B2929833A834B835C83CA01B9010E94C5
:101A6000651211CF0E943B12C501B4010E941112F0
:101A70000ACF8695112311F089818170882309F49A
:101A800002CF2D81229526952770220F220F8D815E
:101A90008F7090E0B0E0A0E04C015D01022E04C028
:101AA000880C991CAA1CBB1C0A94D2F73D8160E0EB
:101AB00070E0CB0134FF0FC06FE070E080E090E099
:101AC00004C0660F771F881F991F2A95D2F760956B
:101AD00070958095909549814695469543704D83C4
:101AE0004230B1F0433019F19B01AC01282939296A
:101AF0004A295B2929833A834B835C833D81698131
:101B00007A818B819C813130B1F00E944113BBCE30
:101B10009B01AC01282939294A295B2929833A8369
:101B20004B835C83CA01B9010E946B13ACCE0E9447
:101B30004113C501B4010E941713A5CE3D81323F68
:101B400009F447C080F4303F79F1313FD9F1832F58
:101B5000805E8031D0F0112309F456C001117ACE95
:101B600089818F7133C04D81433FD1F1443F99F753
:101B7000112309F43FC089818F7189830E94AE12BD
:101B800063E089810E946F147ECE5D815F705D830A
:101B900089818F71112321F00E94AE128D81BACEFE
:101BA0000E94D0128D81C4CE112341F0053008F07F
:101BB0006ACE89818F710E94F51265CE063008F0D9
:101BC00062CEF7CF89818F71112339F00E94AE1256
:101BD0005ACE89818F711123C9F30E94D01253CE3E
:101BE000112329F089818F710E9499124CCE0E9495
:101BF0008F1249CE81E00E947814023008F443CE5F
:101C000082E00E9478143FCE0111A5CE89818F71A8
:101C1000E4CF49814F706D81C7010E947F040E940B
:101C20008A1131CE49814F706D81C7010E94D8055C
:101C30002ACE0F900F900F900F900F90DF91CF91C1
:101C40001F910F91FF90EF90DF90BF90AF909F900A
:101C50008F9008950F931F93CF93DF93EC018B81A7
:101C60009C81892B29F08881998189238F3F29F4D0
:101C7000DF91CF911F910F910895CE010E94A10491
:101C80008823B1F3688179818A810E943B148C0199
:101C90000E9495130E940612B801CE01DF91CF91E8
:101CA0001F910F910C94DB0B0E9435150E94461575
:101CB0000E9408150E945F150E949B1A0E94AA1993
:101CC00090E080E00E948F0990E080E00C94A509EC
:101CD0000E9424150C94540E0E942F14282F892F33
:101CE00082958F70903C80F48A30B0F4843020F478
:101CF000823090F480E008958630E1F781E0203E64
:101D000088F0213FB9F70EC08C3011F08F3091F779
:101D100093FB882780F9089581E0203F39F018F47B
:101D2000203E40F70895243F29F7FCCF0895CF9334
:101D3000DF9300D000D00F92CDB7DEB70F900F9099
:101D40000F900F900F90DF91CF910895CF93DF9375
:101D500000D000D000D0CDB7DEB726960FB6F894ED
:101D6000DEBF0FBECDBFDF91CF9108951F93CF93FC
:101D7000DF93E0916D0116E080916E018E1304C037
:101D8000DF91CF911F910895CE2FD0E01E9FF001DB
:101D90001124E159FE4F4081518162817381848118
:101DA00095810E94A60EFE013196E770E5CF409125
:101DB0009F015091A0016091A1017091A2018091B9
:101DC000A3019091A4010C94A60E1F93CF93DF93CF
:101DD0008091A401807FC1F48091A1018823A1F0AA
:101DE00080916D01C0916E0160919F017091A00181
:101DF0004091A2015091A301D62FD723DA01A095DB
:101E0000B09516E0C81304C0DF91CF911F910895DB
:101E100090E04115510511F0DF3F31F401968770D4
:101E2000F1CF2A0F3B1F17C0189FF001199FF00D2B
:101E30001124E159FE4F21812713F0CF2081261371
:101E4000EDCF22812111EACF238134812417350778
:101E500040F3241B350B283C310500F72091A401E9
:101E60002F7020612093A40126E0289FF001299F74
:101E7000F00D1124EC58FE4F80818F7080618083BB
:101E80008FE991E00E942A0EDF91CF911F910C946F
:101E9000B60E9F92AF92BF92CF92DF92EF92FF92D7
:101EA0000F931F93CF93DF93CDB7DEB72B970FB66A
:101EB000F894DEBF0FBECDBF8C0185E0F801DE01D6
:101EC000179601900D928A95E1F7D8014C911196E1
:101ED0005C9111971296EC9012978091A2019091CB
:101EE000A301009709F46BC120919F013091A001DB
:101EF000632F62236F3F09F462C11396CD90DC908B
:101F00009090A101992009F4F8C0C816D90608F4E8
:101F10003FC0F601E81BF90BCF01FF24F394883C86
:101F2000910508F0F12C8FE9A82E81E0B82E809160
:101F3000A401982F907FFF2009F4B7C0911180C0B1
:101F4000FE2C35132AC0241328C0E11026C08F7040
:101F500080618093A4010E94D70EC5010E942A0EC1
:101F60008091A401D80115968C938F2D2B960FB6D6
:101F7000F894DEBF0FBECDBFDF91CF911F910F91BF
:101F8000FF90EF90DF90CF90BF90AF909F9008951B
:101F9000809590958C0D9D1DC0CFCD2829F0842F64
:101FA00085238F3F09F019C180E0B82FB170DB2E77
:101FB000E0916D0120916E0136E080FD1CC0EE20A5
:101FC000A1F28091A40181608093A401F12CCDCF76
:101FD0008E2F90E03E9FF0011124E159FE4F618168
:101FE000651306C06081641303C062816E11E7CF80
:101FF000FC013196E770E213EBCF4F8358878F8156
:1020000098850E942F14292F22952F70903260F00E
:10201000225F2F70223078F49F7051F0F801958183
:10202000907F31F4D12C0AC09F7011F08823D1F336
:10203000805E8830B8F3C8010E942A0EFD2C95CF2F
:10204000351306C0241304C0D801EE2009F47BC068
:102050004F8358878F8198850E946C0E882309F4DE
:10206000B8C0EE2009F4B5C08091A401803270F0B0
:1020700020919F013091A0013A8329831B82DD8248
:10208000CC828E83CE0101960E942A0E86E0F80152
:10209000AFE9B1E001900D928A95E1F70E94E50E5B
:1020A0000E94D70EFF24F39460CF911113C07C2DB2
:1020B000DB86CA866E2D8B850E94970E8FE991E094
:1020C0000E942A0E86E0F50111928A95E9F70E9496
:1020D000D70E4BCF3513BCCF2413BACFE110B8CFF6
:1020E000D80115968C93C8010E942A0E86E0F5014E
:1020F00011928A95E9F7F92C38CFC816D90688F1DC
:10210000B601681B790BCB01F12C883C910508F0D6
:1021100047C0FE2CEE2009F45CC0351330C02413F8
:102120002EC08091A40180FD21C0982F907FF1F0F6
:10213000D80115968C931597903F39F0982F907F82
:10214000905F8F70892B15968C93C8010E942A0E80
:1021500086E0F801AFE9B1E001900D928A95E1F7D0
:10216000B6CF809590958C0D9D1DCECF86E0F80161
:10217000AFE9B1E001900D928A95E1F7F6CE4F8379
:1021800058878F8198850E946C0E81117FCF809136
:10219000A40181608093A401C8010E942A0EE5CEAB
:1021A0007C2DDB86CA866E2D8B850E94970E86E07D
:1021B000EFE9F1E0DF011D928A95E9F788CFEE2083
:1021C00041F04F8358878F8198850E946C0E811152
:1021D0005DCFC8010E942A0E65CF81E08E25E5CE35
:1021E0001F93CF93DF93CDB7DEB72C970FB6F8943C
:1021F000DEBF0FBECDBF4F83588769877A878B8735
:102200009C87CE0107960E94490F882369F08A8532
:102210009B85892B39F04F815885842F85238F3FEB
:1022200009F071C016E05FC086E0FE013796DE015E
:10223000119601900D928A95E1F78A859B85892BED
:1022400089F388859F8189238F3F61F320916E01F7
:1022500030E0C90101968770992740916D014817B8
:10226000190671F40E94680E10926E0110926D01B1
:1022700086E0EFE9F1E0DF011D928A95E9F7D2CF20
:1022800096E0929FD001939FB00D1124A159BE4FAB
:10229000FE01319601900D929A95E1F780936E01BF
:1022A0000E94B60EBFCF819FC001112481599E4F5D
:1022B0000E94490F8823E9F0E0916D011E9FF00113
:1022C0001124E159FE4F40815181628173818481E3
:1022D00095810E94A60E80916D0190E00196877015
:1022E000992780936D0180916D0190916E01891302
:1022F000DACF2C960FB6F894DEBF0FBECDBFDF91BC
:10230000CF911F91089569857A858B859C850E9460
:10231000A60E88CFEF92FF920F931F93CF93DF9378
:102320008C01892B89F0F12CEE24E394E8012196AD
:10233000F8018491843709F457C0A0F4823009F47D
:102340003EC048F48130D1F0DF91CF911F910F91C1
:10235000FF90EF9008959CEF980F9037A8F70E9498
:10236000A20A0AC0853709F44CC09CE7980F903741
:1023700058F78F770E947E0B8E0116C00E5F1F4F9D
:10238000FE01849190E2980F983060F48770FE2DE2
:1023900001C0FF0F8A95EAF78F2F0E9438150E941F
:1023A0005F1502C00E94A20A8F2D815008F4BECF93
:1023B000EFE9FFE03197F1F700C00000F6CF0E5FC4
:1023C0001F4FFE01849190E2980F983050F487706F
:1023D000FE2D01C0FF0F8A95EAF78F2F0E943E1550
:1023E000DECF0E947E0BE0CF0E5F1F4FFE01C49137
:1023F000C150D0F28FE99FE00197F1F700C00000D3
:10240000F7CF0E5F1F4FFE01F490CECF089560937B
:10241000C7017093C8018093C9019093CA010C94BD
:10242000540ECF93DF9300D000D0CDB7DEB76983D1
:102430007A838B839C838091C7019091C801A0917E
:10244000C901B091CA0129813A814B815C81822BFB
:10245000932BA42BB52B8093C7019093C801A09315
:10246000C901B093CA010F900F900F900F90DF91A8
:10247000CF910C94540ECF93DF9300D000D0CDB702
:10248000DEB769837A838B839C838091C7019091A7
:10249000C801A091C901B091CA0129813A814B813B
:1024A0005C8182239323A423B5238093C701909357
:1024B000C801A093C901B093CA010F900F900F906B
:1024C0000F90DF91CF910C94540ECF93DF9300D0F7
:1024D00000D0CDB7DEB769837A838B839C838091EC
:1024E000C7019091C801A091C901B091CA01298189
:1024F0003A814B815C8182279327A427B52780935B
:10250000C7019093C801A093C901B093CA010F906D
:102510000F900F900F90DF91CF910C94540E10926A
:10252000C3011092C4011092C5011092C6010C940F
:10253000540E41E050E060E070E004C0440F551FCD
:10254000661F771F8A95D2F74093C3015093C40149
:102550006093C5017093C6010C94540E282F81E03E
:1025600090E0A0E0B0E004C0880F991FAA1FBB1F35
:102570002A95D2F74091C3015091C4016091C501E1
:102580007091C601842B952BA62BB72B8093C3018A
:102590009093C401A093C501B093C6010C94540E4E
:1025A00041E050E060E070E004C0440F551F661F3A
:1025B000771F8A95D2F740955095609570958091D8
:1025C000C3019091C401A091C501B091C6018423BB
:1025D0009523A623B7238093C3019093C401A093AE
:1025E000C501B093C6010C94540E282F81E090E0F1
:1025F000A0E0B0E004C0880F991FAA1FBB1F2A9556
:10260000D2F74091C3015091C4016091C50170910E
:10261000C60184279527A627B7278093C3019093E7
:10262000C401A093C501B093C6010C94540ECF937E
:10263000DF9300D000D0CDB7DEB769837A838B8378
:102640009C838091C3019091C401A091C501B09178
:10265000C60129813A814B815C81822B932BA42B6B
:10266000B52B8093C3019093C401A093C501B0938F
:10267000C6010F900F900F900F90DF91CF910C94A7
:10268000540ECF93DF9300D000D0CDB7DEB769836F
:102690007A838B839C838091C3019091C401A09124
:1026A000C501B091C60129813A814B815C818223A9
:1026B0009323A423B5238093C3019093C401A093D3
:1026C000C501B093C6010F900F900F900F90DF914E
:1026D000CF910C94540ECF93DF9300D000D0CDB7A0
:1026E000DEB769837A838B839C838091C301909149
:1026F000C401A091C501B091C60129813A814B81E5
:102700005C8182279327A427B5278093C3019093E8
:10271000C401A093C501B093C6010F900F900F9014
:102720000F90DF91CF910C94540E0895E82F2CE078
:10273000929FE00D11248E2F877041E001C0440F5D
:102740008A95EAF7E695E695E69585E0E89FF0013B
:102750001124EB55FE4F30E020E070E05191DF0195
:102760001197CB01022E02C0969587950A94E2F745
:10277000817081958527842385278C932F5F3F4F18
:102780002530310559F70895E82F2CE0929FE00D90
:1027900011249E2F9770E695E695E69585E0E89FD3
:1027A000F0011124EB55FE4F50E040E080E0219114
:1027B00030E0092E02C0369527950A94E2F7217081
:1027C0003327042E01C0220F0A94EAF7822B4F5FB1
:1027D0005F4F4530510559F70895BF92CF92DF9270
:1027E000EF92FF920F931F93CF93DF938C01C090D2
:1027F000C301D090C401E090C501F090C601809162
:10280000C7019091C801A091C901B091CA01C82A1D
:10281000D92AEA2AFB2ACFE1D0E0BC2ED701C60193
:102820000C2E04C0B695A795979587950A94D2F774
:1028300080FD0EC0219788F7B12C8B2DDF91CF91B1
:102840001F910F91FF90EF90DF90CF90BF90089570
:10285000B8018C2F0E94F505019761F3EECFCF935D
:10286000DF93D82FC92F0E94ED136D2F7C2FDF919E
:10287000CF910C94F5051F93CF93DF93162FD72F8D
:1028800090916C01992339F0862F972FDF91CF918A
:102890001F910C942F14882391F0862F972F0E945C
:1028A000ED13C82F682F812F9D2F0E949613612F43
:1028B0007D2F8C2FDF91CF911F910C94F505862FE2
:1028C000972F0E94C413C82FF2CF8091CB0185951A
:1028D0008595859508958091CB018770089598E03E
:1028E000899F90011124622B6093CB010C94AE124E
:1028F0009091CB01809589238093CB01282F27705D
:1029000061F4282F082E000C330B9217130629F0C0
:102910008595859585950C94D01208959091CB015D
:10292000977081E009F480E0089590911201992355
:10293000E1F09091210297FF18C0E82FE695E69507
:10294000E695EF3139F12091000130910101E20F5C
:10295000F32FF11D877021E030E001C0220F8A952E
:10296000EAF78181822B81830895209100013091C3
:102970000101F90132969FEF40E05191851751F026
:102980009F3F19F4511101C0942F4F5F4E31A9F7A9
:102990009F3F09F40895290F311D97FD3A95F901DC
:1029A0008283089590911201992301F1909121025F
:1029B00097FF1CC0E82FE695E695E695EF3139F1D3
:1029C0002091000130910101E20FF32FF11D87707A
:1029D00021E030E0A90102C0440F551F8A95E2F7BB
:1029E000CA018095918189238183089520910001F6
:1029F00030910101F9013296205E3F4F9191891388
:102A000003C0DF0111971C92E217F307B9F708958D
:102A100081E090E0E0910001F0910101E80FF91FE1
:102A20001082019680329105A9F708959091EF01E7
:102A3000982B9093EF010895982F90958091EF0136
:102A400089238093EF0108951092EF0108959091EA
:102A5000EE01982B9093EE010895982F9095809118
:102A6000EE0189238093EE0108951092EE010895FE
:102A70009091ED01982B9093ED010895982F9095EA
:102A80008091ED0189238093ED0108951092ED016D
:102A900008958093CC0108951092CC01089520915F
:102AA000000130910101F9013196205E3F4F80E035
:102AB000919191118F5FE217F307D1F70895E0919B
:102AC0000001F09101018091EF018083E09100010C
:102AD000F091010180819091EE01892B8083E0913A
:102AE0000001F091010180819091ED01892B80839B
:102AF0009091CC01992361F0E0910001F0910101E6
:102B00008081892B80830E944F1581111092CC0106
:102B100080910001909101010C9479096DEE7EEF96
:102B200090E080E00E94062360E082E090E00E9456
:102B3000F42260E083E090E00E94F42260E084E010
:102B400090E00E94F42260E085E090E00C94F42292
:102B500090E080E00E94EE229C0181E02D3E3E4FFD
:102B600009F080E0089582E090E00C94E622682F5E
:102B700082E090E00C94F42283E090E00C94E62252
:102B8000682F83E090E00C94F42284E090E00C94B1
:102B9000E622682F84E090E00C94F42280912702D2
:102BA000843039F11092F10188E190E020E40FB611
:102BB000F894A895809360000FBE2093600080E099
:102BC0000E94D60583B7817F846083BF83B781600D
:102BD00083BF7894889583B78E7F83BF0FB6F894B0
:102BE000A8958091600088618093600010926000D9
:102BF0000FBE089508950895CF930E94FA150E947C
:102C000099080E94FB15C0E08C2F0E945E09892B59
:102C100031F4CF5FC430C1F780E0CF91089581E0F7
:102C2000FCCF0E94680E0E946D090C94D6051F927D
:102C30001FB61F9211248F939F93AF93BF938091E0
:102C4000F101811113C080911D0290911E02A0918B
:102C50001F02B09120024196A11DB11D80931D025B
:102C600090931E02A0931F02B0932002BF91AF91D8
:102C70009F918F911F901FBE1F90189582E084BD79
:102C800093E095BD9AEF97BD80936E0008952FB79E
:102C9000F89480911D0290911E02A0911F02B091A4
:102CA00020022FBF0895CF92DF92EF92FF929C01F6
:102CB0004FB7F89480911D0290911E02A0911F02BF
:102CC000B09120024FBF6C017D01EE24FF24A901C9
:102CD00070E060E0C416D506E606F70638F0821B01
:102CE000930BFF90EF90DF90CF9008950197F7CF6F
:102CF0001F921FB61F9211248F939F93AF93BF9380
:102D000080911D0290911E02A0911F02B09120029D
:102D10000196A11DB11D80931D0290931E02A093E8
:102D20001F02B0932002BF91AF919F918F911F908E
:102D30001FBE1F9018950E948F1EF8942FEF87EAF0
:102D400091E6215080409040E1F700C0000087E00C
:102D500090EBDC018093300290933102A093320219
:102D6000B093330288E19CE00FB6F894A895809365
:102D700060000FBE90936000FFCFAF92BF92CF92E2
:102D8000DF92EF92FF920F931F93CF93C0E0AA249C
:102D9000A394B12CE82EF12C8C2F0E945E096C01BB
:102DA00010E000E0C501002E02C0880F991F0A94B0
:102DB000E2F78C219D21892B99F0602F7C2F80E0F8
:102DC0000E94D905E816F90659F481E0CF911F91C8
:102DD0000F91FF90EF90DF90CF90BF90AF9008954C
:102DE0000F5F1F4F0C301105E9F6CF5FC430A1F61D
:102DF00080E0ECCFCF93C82F8CE20E94BD168823D1
:102E000021F08C2FCF910C94BD1680E0CF910895C6
:102E1000CF93DF9300D000D0CDB7DEB70E94A815C6
:102E2000811102C00E948E1595E6998308C00E9408
:102E300099088FE39CE90197F1F700C00000A98190
:102E4000A150A983A111F3CF89E20E94FA16811142
:102E500010C18AE20E94FA1681110E948E1585E047
:102E60000E94FA1681110E949B160E94B31580934E
:102E7000F00187E00E94FA16882371F08BE10E942E
:102E8000FA16882309F4D1C09091F001892F8D7F23
:102E900091FF82608093F0018091F0010E94B7154C
:102EA0000E94C51590E0909322028093210280EE4B
:102EB0000E94FA16882341F090912102892F8E7F7B
:102EC00090FF81608093210289E30E94FA16882393
:102ED00041F090912102892F8D7F91FF8260809334
:102EE000210282EE0E94FA16882341F0909121027D
:102EF000892F8B7F92FF84608093210286EE0E944F
:102F0000FA16882341F090912102892F877F93FF41
:102F100088608093210283EE0E94FA16882341F094
:102F200090912102892F8F7E94FF806180932102EE
:102F300085E30E94FA16882341F090912102892F9F
:102F40008F7D95FF80628093210281E30E94FA16B3
:102F5000882341F090912102892F8F7B96FF806416
:102F60008093210281E10E94FA16882341F090911A
:102F70002102892F97FB87F9805880932102809145
:102F800021020E94C91587E20E94FA1689838EE108
:102F90000E94FA16882319F0B981B260B9838FE1D3
:102FA0000E94FA16882319F029812460298380E27F
:102FB0000E94FA16882319F039813860398381E23A
:102FC0000E94FA16882319F049814061498382E200
:102FD0000E94FA16882319F059815062598383E2BE
:102FE0000E94FA16882319F089818064898384E21B
:102FF0000E94FA168823B1F199819068998389819A
:103000000E94C0153981232F30E050E040E0298331
:103010003A834B835C83CA01B9010F900F900F90E4
:103020000F90DF91CF910C9407128EE00E94FA1658
:10303000882339F09091F001892F8B7F92FF846073
:1030400029CF80E10E94FA169091F001882329F09F
:10305000892F877F93FF88601DCF892F8E7F90FFF8
:10306000816018CFA981A111CACF0E94BC15282F59
:10307000CBCF0F900F900F900F90DF91CF910895CD
:103080008091F40180FF12C06091050185E0689F86
:10309000B001112475956795759567956038710530
:1030A000A8F561157105A1F1862F089581FF09C06A
:1030B0006091050185E0689FB001112475956795C1
:1030C000EDCF6091050182FD0AC08091F501882352
:1030D000D1F09091040160910501891728F085E0F5
:1030E000689FB0011124DACF869FB001112485E0DA
:1030F000869F9001879F300D1124692F70E0C901D0
:103100000E94B822CBCF65E070E0CECF8FE7089564
:1031100081E008958091F40180FF0CC0609103016B
:1031200070E075956795759567956115710549F11D
:10313000862F089581FF06C06091030170E07595A8
:103140006795F3CF6091030182FD0BC09091F5016B
:103150009923A1F06091020180910301961738F044
:10316000682F70E06038710500F38FE70895899F3C
:10317000C001112470E00E94B822F4CF61E070E039
:10318000D7CF81E00895803F31F40E9440188195A7
:103190008093F8010895813F19F40E944018F8CFF8
:1031A000823F31F40E94401881958093F701089581
:1031B000833F19F40E944018F8CF893F29F40E94F8
:1031C0008A188093F90108958A3F21F40E948A1891
:1031D0008195F7CF8B3F31F40E948A1881958093B7
:1031E000FA0108958C3F19F40E948A18F8CF843FA1
:1031F00031F48091F60181608093F6010895853F56
:1032000021F48091F6018260F7CF863F21F480910E
:10321000F6018460F1CF873F21F48091F601886048
:10322000EBCF883F21F48091F6018061E5CF8D3F9F
:1032300031F48091F40181608093F40108958E3F10
:1032400021F48091F4018260F7CF8F3FB9F780912C
:10325000F4018460F1CF9091F701803F41F48091B7
:10326000F80187FD1092F801992371F00895813FCC
:1032700029F48091F8011816ACF3F6CF823F81F45F
:1032800097FFF2CF1092F7018091F8019091F90128
:10329000892B9091FA01892B49F71092F501089535
:1032A000833F19F4191674F3DFCF893F39F4809105
:1032B000F9011816CCF61092F901D6CF8A3F29F4FD
:1032C0008091F90187FFD0CFF6CF8B3F39F4809101
:1032D000FA0187FFC9CF1092FA01C6CF8C3F29F4BB
:1032E0008091FA011816BCF3BFCF843F31F480916E
:1032F000F6018E7F8093F601B7CF853F21F4809150
:10330000F6018D7FF7CF863F21F48091F6018B7F08
:10331000F1CF873F21F48091F601877FEBCF883F83
:1033200021F48091F6018F7EE5CF8D3F31F48091BD
:10333000F4018E7F8093F40197CF8E3F21F480912A
:10334000F4018D7FF7CF8F3F09F08ECF8091F4018C
:103350008B7FF0CF86EF91E00E9484090E94471690
:103360009093F3018093F20108951F93CF93DF931D
:1033700000D000D000D0CDB7DEB78091F20190919F
:10338000F3010E945316AC018091F50120910601D2
:1033900030E0811106C0209107019AE0299F900139
:1033A00011244217530788F02091F701A091F801EA
:1033B000A9831091F901B091FA01BE8321110FC0C8
:1033C0009A2F912B9B2B09F0B2C026960FB6F8943A
:1033D000DEBF0FBECDBFDF91CF911F9108958F3F0C
:1033E00019F08F5F8093F501121624F40E944018A3
:1033F0008093F7018091F70187FF05C00E94401874
:1034000081958093F7012981121624F40E944018B7
:103410008093F8018091F80187FF05C00E94401851
:1034200081958093F8018091F701882309F455C0B4
:103430003091F8013D83332309F44FC0282F880FC2
:10344000330B440B550B29833A834B835C83CA01AE
:10345000B9010E94BF2123E333E343E35FE36983C0
:103460007A838B839C8369817A818B819C810E9482
:10347000232269837A838B839C8369817A818B8100
:103480009C810E9487216093F7018D81082E000C9A
:10349000990BAA0BBB0B89839A83AB83BC83BC01BA
:1034A000CD010E94BF2123E333E343E35FE369835C
:1034B0007A838B839C8369817A818B819C810E9432
:1034C000232269837A838B839C8369817A818B81B0
:1034D0009C810E9487216093F801111624F40E94B8
:1034E0008A188093F9018091F90187FF05C00E9435
:1034F0008A1881958093F9019E81191624F40E94FF
:103500008A188093FA018091FA0187FF05C00E9412
:103510008A1881958093FA0126960FB6F894DEBF3B
:103520000FBECDBFDF91CF911F910C94AA198F3F91
:1035300009F057CF68CF85E0E6EFF1E0DF011D929B
:103540008A95E9F71092F5011092F401089580919F
:103550001B020895CF93DF9300D00F92CDB7DEB753
:1035600020912702243019F523E029838A839B8345
:103570002093E9008FEF9091E800815095FD06C0FF
:1035800095ED9A95F1F700008111F5CF8091E80053
:1035900085FF0DC050E040E063E070E0CE01019691
:1035A0000E94071D8091E8008E778093E8000F90BD
:1035B0000F900F90DF91CF910895CF93DF9300D0BC
:1035C0000F92CDB7DEB79C0180912702843031F590
:1035D00082E08983205831093B832A8383E08093EA
:1035E000E9008FEF9091E800815095FD06C095EDC0
:1035F0009A95F1F700008111F5CF8091E80085FFE1
:103600000DC050E040E063E070E0CE0101960E9402
:10361000071D8091E8008E778093E8000F900F904F
:103620000F90DF91CF910895209127022430F1F47B
:1036300022E02093E9002FEF3091E800215035FD82
:1036400006C035ED3A95F1F700002111F5CF209134
:10365000E80025FF0BC050E040E065E070E00E940C
:10366000071D8091E8008E778093E8000895CF933E
:10367000DF93D82FC92F809127028430F1F49091E5
:1036800012019923E9F09091210297FF19C08093CC
:10369000E9008FEF9091E800815095FD06C095E11B
:1036A0009A95F1F700008111F5CF8091E80050E084
:1036B00040E060E270E085FD1AC0DF91CF9108958F
:1036C00081E08093E9008FEF9091E800815095FDB3
:1036D00006C095ED9A95F1F700008111F5CF809124
:1036E000E80085FFEACF50E040E068E070E08D2F11
:1036F0009C2F0E94071D8091E8008E778093E80040
:1037000080E2ED2FFC2FABEFB1E001900D928A9596
:10371000E1F7D3CF80912602811109C00E948F1E4C
:103720000E94EC1E8091E20084608093E200089584
:10373000109226020895089508950C94111642E0FF
:1037400061EC81E00E940B1E42E061EC82E00E948D
:103750000B1E42E061EC83E00E940B1E42E261EC32
:1037600084E00C940B1E80912902893089F148F481
:10377000823009F494C0833009F44FC0813041F0A5
:1037800008958A3009F47BC08B3009F461C0089534
:1037900080912802813A09F03FC08091E800877F3C
:1037A0008093E80080912C0290912D02892B61F486
:1037B00060E28BEF91E070E00E94561D8091E8007E
:1037C0008B778093E800089560E090E080E0F3CF8D
:1037D00080912802813201F580912C0290912D0276
:1037E000009711F00397C1F48091E800877F8093E0
:1037F000E8008091E80082FF0BC08091F100809387
:103800001B028091E8008B778093E8000C943F1EA8
:10381000809127028111EDCF089580912802813A8D
:10382000D9F780912C0290912D02892BA9F78091D4
:10383000E800877F8093E8008091E80080FFFCCF5C
:10384000809112018093F1008091E8008E77DCCFA7
:1038500080912802813201F780912C0290912D02F3
:10386000892BD1F68091E800877F8093E8000E9441
:103870003F1E80912A02809312010C94680E809161
:103880002802813249F68091E800877F8093E80022
:103890000E943F1E80912B0280931C02089580910C
:1038A0002802813A09F0B8CF8091E800877F8093A1
:1038B000E8008091E80080FFFCCF80911C02C2CF1D
:1038C00084B7877F84BF0FB6F894A8958091600075
:1038D000886180936000109260000FBE80E8809342
:1038E0006100109261000E94BC090E948F1E0E941C
:1038F000EC1E8091E20084608093E20078940E9444
:103900006C210E94BE0988E091E00E9468098091C4
:103910002702853019F00E94C409F9CF0E94CE1504
:1039200080912502882399F30E94FC15882379F35E
:103930000E94F11CECCF9C01DA01892F992783307A
:103940009105C1F068F48130910509F445C00297F2
:1039500061F48DE690E021EF36E02D933C930895DD
:1039600081329105E1F0829739F190E080E030E01A
:1039700020E0F3CFC9019927213059F08230910519
:1039800059F0EDEEF6E0892B81F7849190E09F01EC
:10399000E4CFE5EDF6E0F9CFE1ECF6E0F6CF643008
:1039A00020F7E62FF0E0EE0FFF1FE15DFE4F2081D4
:1039B000318189E090E0D1CF6430B8F670E0FB014E
:1039C000EE0FFF1FE95DFE4F208131816D5D7E4F5F
:1039D000FB01808190E0C1CF82E190E02EE537E0ED
:1039E000BCCF80E189BD82E189BD09B400FEFDCF75
:1039F0008091D8008F7D8093D8008091E000826014
:103A00008093E0008091E00081FDFCCF0895AF92AB
:103A1000BF92CF92DF92FF920F931F93CF93DF93CA
:103A20006C01EB018A010E945E1EF82E811123C0F9
:103A30000115110539F0F80180819181C81BD90B5E
:103A4000C80ED91EB12CA12C2097A9F08091E800B6
:103A500085FD22C08091E8008E778093E8000115F3
:103A60001105A1F0F80180819181A80EB91EB182E3
:103A7000A08285E0F82E8F2DDF91CF911F910F91BD
:103A8000FF90DF90CF90BF90AF9008950E945E1E90
:103A90008823D1F2F82EEFCFF60181916F01809348
:103AA000F1002197FFEFAF1ABF0ACECFFC01CB0187
:103AB00020912E0230912F022617370790F00097A1
:103AC00029F42091E8002E772093E80040E0009749
:103AD00051F4411108C08091E80082FF31C080E0BC
:103AE0000895C901F3CF209127022223A9F125309F
:103AF000A9F12091E80023FD2DC02091E80022FDCE
:103B0000EACF2091E80020FFE2CF3091F30020912E
:103B1000F200009719F02830310558F041E02830C4
:103B2000310509F040E02091E8002E772093E8006D
:103B3000CECF41914093F10001972F5F3F4FE9CFE6
:103B400080912702882341F0853041F08091E80080
:103B500083FFC1CF81E0089582E0089583E0089556
:103B6000FC01CB0120912E0230912F02261737073E
:103B700090F0009729F42091E8002E772093E80038
:103B800040E0009751F4411108C08091E80082FFA5
:103B900032C080E00895C901F3CF2091270222238B
:103BA000B1F12530B1F12091E80023FD2EC0209124
:103BB000E80022FDEACF2091E80020FFE2CF30911B
:103BC000F3002091F200009719F02830310558F0E9
:103BD00041E02830310509F040E02091E8002E77DF
:103BE0002093E800CECF44914093F10031960197A5
:103BF0002F5F3F4FE8CF80912702882341F0853027
:103C000041F08091E80083FFC0CF81E0089582E019
:103C1000089583E00895982F973028F08F7080934F
:103C2000E90081E008959093E900242F762F50E079
:103C3000981731F07091EC002091ED005091F00058
:103C400021FD02C09F5FE8CF3091EB003E7F3093B3
:103C5000EB003091ED003D7F3093ED003091EB00B3
:103C600031603093EB007093EC002093ED005093A3
:103C7000F0002091EE0027FDE5CF80E008958091CF
:103C8000280287FF13C08091E80082FF06C0809160
:103C9000E8008B778093E80004C0809127028111AF
:103CA000F2CF0895809127028823D9F38091E8000C
:103CB00080FFF8CF8091E8008E77ECCF2091E40070
:103CC0003091E50095E6A9012091EC00822F8170EA
:103CD00020FF06C08091E80080FF06C080E00895C4
:103CE0002091E80022FD1AC080912702882389F0E4
:103CF000853089F08091EB0085FD0FC02091E400B4
:103D00003091E50042175307F9F29150E1F684E053
:103D1000089582E0089583E0089581E008950E9467
:103D2000FD1E0E94051FE0EEF0E08081816080832F
:103D3000E8EDF0E080818F77808319BCA7EDB0E0DB
:103D40008C918E7F8C9380818F7E8083109226024F
:103D500008950F931F93CF93DF930E94FD1E0E943F
:103D6000051FC8EDD0E088818F77888388818068BF
:103D7000888388818F7D888319BC109227021092D6
:103D80002302109225021092240200EE10E0F801A6
:103D900080818B7F808388818160888342E060E0BE
:103DA00080E00E940B1EE1EEF0E080818E7F808338
:103DB000E2EEF0E080818160808380818860808392
:103DC000F80180818E7F8083888180618883DF9184
:103DD000CF911F910F910895E8EDF0E080818F7EE3
:103DE0008083E7EDF0E080818160808384E082BFA2
:103DF00081E0809326020C94A91EE8EDF0E080811A
:103E00008E7F80831092E20008951092DA00109263
:103E1000E10008951F920F920FB60F9211242F9375
:103E20003F934F935F936F937F938F939F93AF9342
:103E3000BF93EF93FF938091E10082FF0BC08091CD
:103E4000E20082FF07C08091E1008B7F8093E10058
:103E50000E946B218091DA0080FF19C08091D80008
:103E600080FF15C08091DA008E7F8093DA00809108
:103E7000D90080FF94C080E189BD82E189BD09B489
:103E800000FEFDCF81E0809327020E948A1B809173
:103E9000E10080FF19C08091E20080FF15C0809191
:103EA000E2008E7F8093E2008091E2008061809347
:103EB000E2008091D80080628093D80019BC85E030
:103EC000809327020E949C1B8091E10084FF29C0FF
:103ED0008091E20084FF25C080E189BD82E189BD37
:103EE00009B400FEFDCF8091D8008F7D8093D8006B
:103EF0008091E1008F7E8093E1008091E2008F7ECF
:103F00008093E2008091E20081608093E2008091E2
:103F10002302882309F449C084E0809327020E9489
:103F20009D1B8091E10083FF29C08091E20083FF07
:103F300025C08091E100877F8093E10082E080933B
:103F40002702109223028091E1008E7F8093E1008E
:103F50008091E2008E7F8093E2008091E200806198
:103F60008093E20042E060E080E00E940B1E8091BE
:103F7000F00088608093F0000E949B1BFF91EF91FE
:103F8000BF91AF919F918F917F916F915F914F9171
:103F90003F912F910F900FBE0F901F90189519BC55
:103FA000109227020E94981B72CF8091E30087FD38
:103FB00002C081E0B2CF83E0B0CF1F920F920FB664
:103FC0000F9211242F933F934F935F936F937F939F
:103FD0008F939F93AF93BF93CF93DF93EF93FF9311
:103FE000D091E900DF708091EC00C82FC17080FD96
:103FF000C0E81092E9008091F000877F8093F00084
:1040000078940E9421201092E9008091F00088604D
:104010008093F000CD2BCF70C093E900FF91EF911A
:10402000DF91CF91BF91AF919F918F917F916F91D0
:104030005F914F913F912F910F900FBE0F901F9066
:1040400018951F93CF93DF93CDB7DEB7AA970FB61E
:10405000F894DEBF0FBECDBF88E292E0FC0101966E
:104060002091F100208322E080339207B9F70E946B
:10407000B31B8091E80083FF16C1809128029091C4
:1040800029029A3008F00FC1E92FF0E0E05CFC4D06
:104090000C94CC22803881F0823809F004C18091E0
:1040A0002C028F708093E9008091EB0085FB8827BC
:1040B00080F91092E90006C08091240290912502B7
:1040C000911182609091E800977F9093E80080932F
:1040D000F1001092F1008091E8008E77E0C0882313
:1040E00009F4CEC0823009F0DEC080912A0281112D
:1040F000D1C080912C028F7009F4D5C08093E90063
:104100002091EB0020FFC6C0933031F48091EB008A
:1041100080628093EB00BEC09091EB009061909321
:10412000EB0021E030E001C0220F8A95EAF72093EE
:10413000EA001092EA008091EB008860EACF8111DA
:10414000B2C010912A021F778091E3008078812B02
:104150008093E3008091E800877F8093E8000E94CD
:104160003F1E8091E80080FFFCCF8091E3008068D3
:104170008093E30082E0111183E08093270293C0D3
:104180008058823008F08FC080912A0290912B02D3
:104190008C3D23E09207A1F583E08A838AE289833C
:1041A0004FB7F894DE01139620E03EE051E2E32F92
:1041B000F0E050935700E49120FF03C0E295EF70C8
:1041C0003F5FEF708E2F90E0EA30C0F0C7968D937E
:1041D0009D932F5F243159F74FBF8091E800877F6F
:1041E0008093E8006AE270E0CE0101960E94561DBD
:1041F0008091E8008B778093E80055C0C096E7CFA8
:10420000AE014F5F5F4F60912C020E949B1CBC016E
:10421000892B09F448C08091E800877F8093E800EB
:1042200089819A810E94B01DE3CF8038E1F58091A9
:10423000E800877F8093E800809123028093F1005B
:104240004ACF811130C090912A02923060F580915E
:10425000E800877F8093E800909323020E943F1E2E
:1042600080912302882311F084E005C08091E3004F
:1042700087FDFACF81E0809327020E949F1B13C025
:1042800080912A02813079F481E0933009F080E056
:10429000809325021092E9008091E800877F809347
:1042A000E8000E943F1E8091E80083FF0AC08091D1
:1042B000E800877F8093E8008091EB008062809324
:1042C000EB00AA960FB6F894DEBF0FBECDBFDF910C
:1042D000CF911F9108950895CF938091270288234D
:1042E000A1F0C091E900CF709091EC00892F81700E
:1042F00090FD80E8C82B1092E9008091E80083FDD2
:104300000E942120CF70C093E900CF9108950E94B0
:104310008E216894B1110C941D2208950E940222EE
:1043200088F09F5798F0B92F9927B751B0F0E1F076
:10433000660F771F881F991F1AF0BA95C9F714C026
:10434000B13091F00E941C22B1E008950C941C221F
:10435000672F782F8827B85F39F0B93FCCF386955F
:1043600077956795B395D9F73EF4909580957095BC
:1043700061957F4F8F4F9F4F0895E89409C097FB39
:104380003EF490958095709561957F4F8F4F9F4F2C
:104390009923A9F0F92F96E9BB279395F695879570
:1043A00077956795B795F111F8CFFAF4BB0F11F433
:1043B00060FF1BC06F5F7F4F8F4F9F4F16C08823DA
:1043C00011F096E911C0772321F09EE8872F762F10
:1043D00005C0662371F096E8862F70E060E02AF051
:1043E0009A95660F771F881FDAF7880F969587953D
:1043F00097F9089557FD9058440F551F59F05F3FA6
:1044000071F04795880F97FB991F61F09F3F79F0F6
:1044100087950895121613061406551FF2CF469578
:10442000F1DF08C0161617061806991FF1CF8695FA
:104430007105610508940895E894BB2766277727DE
:10444000CB0197F908950E9436220C94A7220E946E
:10445000992238F00E94A02220F0952311F00C94AC
:1044600090220C94962211240C941D220E94FA2171
:1044700070F3959FC1F3950F50E0551F629FF001B7
:10448000729FBB27F00DB11D639FAA27F00DB11DD0
:10449000AA1F649F6627B00DA11D661F829F222759
:1044A000B00DA11D621F739FB00DA11D621F839FE0
:1044B000A00D611D221F749F3327A00D611D231FB6
:1044C000849F600D211D822F762F6A2F11249F5704
:1044D00050409AF0F1F088234AF0EE0FFF1FBB1F07
:1044E000661F771F881F91505040A9F79E3F5105C6
:1044F00080F00C9490220C941D225F3FE4F3983ED0
:10450000D4F3869577956795B795F795E7959F5F6F
:10451000C1F7FE2B880F911D9695879597F9089501
:1045200097F99F6780E870E060E008959FEF80EC66
:10453000089500240A941616170618060906089509
:1045400000240A9412161306140605060895092E6F
:104550000394000C11F4882352F0BB0F40F4BF2BDE
:1045600011F460FF04C06F5F7F4F8F4F9F4F08951E
:1045700097FB072E16F4009407D077FD09D00E9410
:10458000D22207FC05D03EF4909581959F4F089567
:10459000709561957F4F0895EE0FFF1F0590F49180
:1045A000E02D0994AA1BBB1B51E107C0AA1FBB1F2A
:1045B000A617B70710F0A61BB70B881F991F5A95AF
:1045C000A9F780959095BC01CD010895F999FECF8A
:1045D00092BD81BDF89A992780B50895A8E1B0E011
:1045E00042E050E00C940E23262FF999FECF92BDA5
:1045F00081BDF89A019700B4021639F01FBA20BDA8
:104600000FB6F894FA9AF99A0FBE08950196272FDB
:104610000E94F5220C94F422DC01CB01FC01F999F3
:10462000FECF06C0F2BDE1BDF89A319600B40D92FE
:1046300041505040B8F70895F894FFCF41054D051B
:104640005105550559055D056105650569056D054A
:104650007105750579057D058105850589058D053A
:10466000130C130C6B0C6B0CAF0CCB0C430C430CEE
:10467000D60C430C9E0D9E0D090E430C430C120EDE
:104680004A206F2053216F2053219F20C0205321A7
:0446900015212121AE
:10469400CD012808140A321EA71A371B141BDD1A71
:1046A400AA1A01F4F53534C697669490919293F65C
:1046B400333236404D36392C08DF07A9077007031B
:0846C400071C0735074E070033
:00000001FF
