:100000000C945C020C9479020C9479020C947902A1
:100010000C9479020C9479020C9479020C94790274
:100020000C9479020C9479020C94EA1C0C94BE1D79
:100030000C9413180C9479020C9479020C947902A4
:100040000C9479020C9479020C9479020C94790244
:100050000C9479020C949A180C9479020C947902FD
:100060000C9479020C9479020C9479020C94790224
:100070000C9479020C9479020C9479020C94790214
:100080000C9479020C9479020C9479020C94790204
:100090000C9479020C9479020C9479020C947902F4
:1000A0000C9479020C9479020C94790229001400C2
:1000B0001A000800150017001C0018000C001200A0
:1000C00013002A002B0004001600070009000A0094
:1000D0000B000D000E000F0033000000E1001D00BA
:1000E0001B00060019000500110010003600370043
:1000F00038002800E000E300E200255223522C00E3
:10010000000024525000510052004F0029001400FA
:100110001A00090013000A000D000F0018001C004F
:1001200033002A002B0004001500160017000700FA
:100130000B00110008000C0012003400E1001D004B
:100140001B000600190005000E00100036003700E5
:1001500038002800E000E300E200057823522C007C
:10016000000024525000510052004F002900590055
:100170005A005B005C005D005E005F006000610093
:1001800062002A002B001E001F0020002100220018
:10019000230024002500260027000000E100640061
:1001A000640200000000340032002F0030002D00F7
:1001B0002E002800E000E300E200000000002C0018
:1001C000000000005000510052004F0035021E0296
:1001D0001F022002210222022302240225022602FB
:1001E00027022A0001003A003B003C003D003E008F
:1001F0003F00000048004C0049004600010040005C
:10020000410042004300440045000000AB00AA004A
:10021000A900AE0001000100010001000100010081
:10022000000001004A004E004B004D001E001F0060
:1002300020002100220023002400250026002700A2
:100240002D002E0001001F14201421142214231449
:1002500024142514261427142D142E1401006400D0
:10026000640200000000000000002F003000310098
:1002700034002800010001000100010001002C00F1
:10028000000001005000510052004F000100010029
:100290000100010001000100010001000100010056
:1002A0000100010001000100010001000100010046
:1002B0000100010001000100010001000100010036
:1002C000010001000100010001000100D100DA007D
:1002D000D900D2000100010001000100010001006D
:1002E00000000100CF00CE00CD00D0000100007C56
:1002F000027C20782178237824782578267827783E
:1003000028784C000100010093748074817415708A
:1003100014700052015202520552010001009574FE
:1003200094749074917400710171010001000100D6
:1003300001000100010001000100010001000100B5
:100340000000010001000100010001000E03430054
:100350006F006E0074007200610000000E03430025
:1003600061007200740065006C0000000403090461
:1003700009023B00020100A0FA0904000001030188
:100380000100092111010001224400070581030831
:10039000000109040100010300000009211101000E
:1003A0000122B600070582032000011201000200AD
:1003B0000000085443010001000102000105010989
:1003C00002A10185020901A10005091901290815E9
:1003D00000250195087501810205010930093115D3
:1003E00081257F95027508810609381581257F953D
:1003F0000175088106050C0A38021581257F9501D3
:1004000075088106C0C005010980A1018503190195
:100410002AB700150126B700950175108100C005A7
:100420000C0901A101850419012AA002150126A0C9
:1004300002950175108100C005010906A10185061C
:10044000050719E029E715002501950875018102C6
:100450000507190029EF1500250195F075018102A6
:100460000508190129059505750191029501750386
:100470009101C005010906A101050719E029E71549
:100480000025019508750181029501750881010516
:1004900007190029FF150026FF0095067508810041
:1004A0000508190129051500250195057501910219
:1004B000950175039101C00011241FBECFEFDAE052
:1004C000DEBFCDBF11E0A0E0B1E0E6EEF0E402C097
:1004D00005900D92AA39B107D9F722E0AAE9B1E057
:1004E00001C01D92A03BB207E1F70E94D4110C9409
:1004F00032200C9400008730B8F46430A8F44C30FB
:1005000098F450E09CE0699F400D511D1124FA01C0
:1005100090E3899FE00DF11D1124EE0FFF1FE455BC
:10052000FF4F85919491089581E090E008950E9495
:100530007B02089581E008950E949A02089581E067
:1005400008950E949A0208950E94A10208950895B4
:100550000E94A7020895A6E0B0E0E1EBF2E00C945F
:100560008E1F49835A839E833091A10189819A818C
:1005700031111AC03E81332399F0222389F00E9461
:100580004308182F682F89819A810E941F0869816A
:100590007A81812F0E943D0F2696E3E00C94AA1FDA
:1005A0000E943108182FF3CF0E94430869817A8195
:1005B000F1CFFC01262F40815181628173818481BA
:1005C00095810E94AB020895CF93DF93EC0161E027
:1005D0000E94D902BE010E949C02DF91CF91089532
:1005E000CF93DF93EC0160E00E94D902BE010E942C
:1005F000A802DF91CF91089581E008950E94FC0246
:100600000895CF93C82F0E94F4068C2F0E94FE02FB
:100610002FEF84E39CE0215080409040E1F700C040
:100620000000CF91089581E00E9401030E94BE184E
:10063000089580E00E9401030E94CF1808950F934F
:100640001F93CF93DF938C0161E00E94D902EC01EC
:10065000B8010E94A402811106C080E0DF91CF9111
:100660001F910F910895B801CE010E94E6158823CD
:10067000A1F3B801CE010E941012882371F3B801D2
:10068000CE010E94E611882341F3F8018581882379
:1006900061F0C330FCE7DF07E9F058F4C115ECE77F
:1006A000DE07A9F0C130DC47B9F0C8010E949F0203
:1006B000D5CFCB358CE7D807A9F0CC35ECE7DE07F2
:1006C00071F0CA35DC4789F70E948A0CEECF0E9490
:1006D0001303C3CF0E94920C0E941903BECF0E9445
:1006E000800CE3CF0E948E0CE0CF0E94EF170E9497
:1006F0009C0308950E94A0030E94F4170895089592
:1007000081E008950895CF93DF93D82F0E9480034E
:10071000C82F882319F08D2F0E9482038C2FDF9120
:10072000CF9108950895CF93C82F0E947F038C2FF7
:100730000E948303CF91089580E00E94930308955F
:100740000E942F160E9493030895CF930E942F16A4
:10075000C82F80919C018C1779F0C0939C010E9456
:100760007F1860939D0170939E0180939F019093E9
:10077000A0018C2F0E949303CF910895ADE0B0E0CB
:10078000E4ECF3E00C948F1F488759876A877B87D6
:100790008C879D8791110E94900B1F8286E0FE013D
:1007A0003896DE01119601900D928A95E1F78D81C0
:1007B00081110DC029813A814B815C816D817E81DF
:1007C0008F810E94DA0A2D96E2E00C94AB1FCE01D5
:1007D00001960E94E4028111EDCFF5CFFC01248146
:1007E000213021F4808191810E947508089566234B
:1007F00029F00E9471130E94561408950E94DD137F
:10080000FACFCF93C82F882399F08CEF8C0F813AC1
:1008100088F48C2F0E94CF16882329F08C2F0E94F9
:100820006F170E94240C8C2F0E9458170E94240CD2
:10083000CF91089580E28C0F883048F4C77081E032
:1008400001C0880FCA95EAF70E94730BEFCFEBE562
:10085000EC0FE33040F4F0E0E35BFE4F808190E08A
:100860000E946316E5CFE8E5EC0FEB3150F4F0E0C1
:10087000EE0FFF1FE95EFE4F808191810E94881676
:10088000D7CF83E38C0F833198F661E08C2F0E94E1
:10089000F703CECF882381F19CEF980F913A28F48B
:1008A0000E946F170E94240C089590E2980F9830D0
:1008B00050F4877091E001C0990F8A95EAF7892F6B
:1008C0000E94790BEFCF9BE5980F933028F490E0CE
:1008D00080E00E946316089598E5980F9B3128F4F4
:1008E00090E080E00E948816089593E3980F93317A
:1008F00018F460E00E94F70308951F93CF93DF93ED
:10090000182FEB010E940104209739F4812F0E94D7
:100910004A04DF91CF911F9108958FE99FE00197DD
:10092000F1F700C000002197EFCF70E060E089335D
:1009300011F460E570E00E947D040895882321F0A1
:100940000E94730B0E94240C0895882321F00E94BA
:10095000790B0E94240C0895B0E0A0E0E2EBF4E0F3
:100960000C94881F6C01D62FC72FFC0115810681BE
:1009700002950F700E94690BE82E8823F9F0E12E92
:100980001123E1F08C2F807F803461F080E28D0FA5
:10099000883008F18C2F807E803221F4D230D8F05C
:1009A0000023C9F080918E0282FF15C082E00E9470
:1009B000540C0E94690B91E0E82EE926BC2EB294FB
:1009C0009FE0B922FBE0FB15B8F1EB2DF0E0EC5C09
:1009D000FF4D0C94791FE12CF1CF0C2F0F70C07FCD
:1009E00011F00295007F112399F0002359F080E265
:1009F0008D0F883010F0D11107C0802F0E94730B2B
:100A00000E94240C8D2F5AC0802F0E94830BF8CF98
:100A10008D2F0E944A04002379F080E28D0F8830E8
:100A200010F0D11104C0802F0E94790B03C0802FD9
:100A30000E94890B0E94240CEB2DE850FF0B349789
:100A400020F40E942F160E949303EE2089F00E944A
:100A5000650B80FD0DC0F60115820E945F0B0E94A0
:100A60007D07C6010E94BB060E945F0B0E948D0796
:100A7000CDB7DEB7E9E00C94A41F2C2F2F70F22E17
:100A8000C07FC03219F0F29480EFF822DD2341F0EC
:100A9000D130D1F1112309F444C00023F1F0B2CFD9
:100AA00080918E0282FD15C0112359F0FF2029F09C
:100AB0008F2D0E94730B0E94240C80E00E94010481
:100AC000BBCF80E00E944A04FF2009F4B5CF8F2DF0
:100AD000ABCF112369F0011104C08F2D0E949E0439
:100AE000ABCF013009F0A8CF8F2D0E94A70BA4CF68
:100AF0000111A2CF8F2D0E94A5048F2D0E94B30B50
:100B00008F2D0E94970B98CF112321F0063008F00B
:100B100093CFE3CF053008F08FCF8F2D0E94A5042F
:100B20008BCF0023D1F3D93349F43FEF87EE93E025
:100B3000315080409040E1F700C000008D2F0E94AE
:100B40004A047ACF8C2F86958695837069F0813020
:100B500009F072CF8D2F9C2F9370111102C080E08D
:100B600090E00E94881668CF8D2F9C2F93701111F2
:100B700002C080E090E00E9463165ECF612F8D2F4F
:100B80000E94F70359CF8C2F8370A1F5111154CF18
:100B90004D2F429546954770440F440F2D2F2F70CF
:100BA00030E0042E02C0220F331F0A94E2F790E0D7
:100BB00080E0D4FF09C08FE090E002C0880F991F49
:100BC0004A95E2F780959095C695C695C370822B9D
:100BD000932BC23049F058F4C13019F00E944D07F0
:100BE0002BCF0E94440728CF0E94560725CF0E9492
:100BF000410722CF8695112311F08C2F8170882315
:100C000009F41ACF4D2F429546954770440F440F73
:100C10002D2F2F7030E0042E02C0220F331F0A94B4
:100C2000E2F790E080E0D4FF09C08FE090E002C0DE
:100C3000880F991F4A95E2F780959095C695C695BD
:100C4000C370822B932BC23049F058F4C13019F095
:100C50000E94B807F1CE0E94AF07EECE0E94C107F6
:100C6000EBCE0E946507E8CECF70112329F08C2FC0
:100C70000E947D078D2F32CF8D2F0E94A5048C2FCF
:100C80000E948D07D9CED23F41F160F4D03FB9F038
:100C9000D13F81F0112309F446C00111B3CE8C2F4E
:100CA0008F711FC0D33F01F1D43FA1F780918E0215
:100CB00082FD24C08C2F8F71112311F312C01123D8
:100CC00041F0053008F0B8CE8C2F8F710E949F073D
:100CD000B3CE063008F0B0CEF7CF8C2F8F71111144
:100CE000CFCF0E947D07A8CE112329F08C2F8F71C2
:100CF0000E947107A1CE0E946C079ECE112349F07D
:100D0000CF718C2F0E947D0763E08C2F0E94360CE0
:100D100093CE81E00E94540C023008F48DCE82E024
:100D20000E94540C89CE002359F0D93309F006CF24
:100D3000EFEFF7EE23E0E150F0402040E1F7FCCE8A
:100D40008C2F8F719DCF0F931F93CF93DF93EC0167
:100D5000688179818D810E9480088C010E94CA0778
:100D60000E944007B801CE010E94AC04DF91CF91F0
:100D70001F910F910895CF93DF93EC018C8188230D
:100D800099F0CE010E941F03811111C00E94690BCE
:100D9000882351F08D81882339F080918E0282FF63
:100DA00003C082E00E94540CDF91CF910895CE01E0
:100DB0000E94A306CE010E94F002F6CF90E080E0F0
:100DC0000E94631690E080E00E9488160E94900BBB
:100DD0000E94240C0E9472140E94561408950E94CE
:100DE00086170E94DE0608950E94800B0E94EF067F
:100DF000089592959F70963091F058F4925F9F708D
:100E0000923058F4803F19F030F4883E30F481E09D
:100E100008959A5FF4CF843FD1F380E00895883E2F
:100E2000B0F3813FD1F7F3CFFC012481222339F0C5
:100E3000808191810E9475080E94F906089580E0E2
:100E40000895A6E0B0E0E7E2F7E00C948F1F269645
:100E5000E2E00C94AB1FA7E0B0E0E1E3F7E00C9414
:100E60008F1F2796E2E00C94AB1F08950E94350770
:100E700008950E9436079093BD018093BC010895A8
:100E800008950E94390708952091BC013091BD0159
:100E9000822B932B0E94390708952091BC01309139
:100EA000BD01822393230E94390708952091BC013C
:100EB0003091BD01822793270E94390708950E942F
:100EC000350708950E945F0708950E946207909376
:100ED000BB018093BA01089590E080E00E9465070D
:100EE000089521E030E0A90102C0440F551F8A9502
:100EF000E2F7CA010E946507089521E030E002C0D0
:100F0000220F331F8A95E2F78091BA019091BB01BD
:100F1000822B932B0E946507089521E030E002C0E8
:100F2000220F331F8A95E2F7209530958091BA0100
:100F30009091BB01822393230E946507089521E0CD
:100F400030E002C0220F331F8A95E2F78091BA0188
:100F50009091BB01822793270E94650708952091F5
:100F6000BA013091BB01822B932B0E946507089533
:100F70002091BA013091BB01822393230E9465071F
:100F800008952091BA013091BB01822793270E94D6
:100F9000650708950895262F277091E001C0990FE5
:100FA0002A95EAF723E0769567952A95E1F7660F8B
:100FB000771F660F771FFA01E60FF71F50E040E03A
:100FC000682F70E08191DF0111979B01042E02C010
:100FD000369527950A94E2F7217021952827292331
:100FE00028272C934F5F5F4F4430510559F70895E0
:100FF000A82FA77023E0969587952A95E1F7880F8B
:10100000991F880F991FFB01E80FF91F50E040E07E
:1010100080E0219130E00A2E02C0369527950A948F
:10102000E2F721703327042E01C0220F0A94EAF759
:10103000822B4F5F5F4F4430510559F70895262F9B
:10104000943070F48C3060F4682F70E08CE0989FDE
:10105000600D711D112442EA51E0822F0E94CB07DE
:101060000895292F943068F48C3058F490E062EAA7
:1010700071E03CE0239F800D911D11240E94F80730
:10108000089580E00895B0E0A0E0E9E4F8E00C9471
:10109000881F7C010091BA011091BB018091BC01B5
:1010A0009091BD01082B192BCFE0D0E0CC24C39444
:1010B000D12CBC2EC6010C2E02C0880F991F0A9499
:1010C000E2F780239123892B49F4219790F7B12CE3
:1010D0008B2DCDB7DEB7E9E00C94A41FB7018C2FA0
:1010E0000E94490F019789F3F3CFCF93DF93EC016F
:1010F0000E944308BE010E94490FDF91CF910895DD
:101100001F93CF93DF93EB019091A101992339F0C5
:10111000CB010E947508DF91CF911F91089588231C
:1011200069F0CB010E944308182F682FCE010E945E
:101130001F08BE01812F0E94490FEDCFCB010E94F5
:101140003108182FF6CF1F93CF93DF93C091BE01C4
:1011500017E08091BF018C1304C0DF91CF911F91E4
:101160000895D0E01C9FF0011D9FF00D1124E05464
:10117000FE4F208131814281538164817581868156
:101180000E942B072196C770E4CF2091F80130917F
:10119000F9014091FA015091FB016091FC017091BD
:1011A000FD018091FE010E942B070895CF93DF93EC
:1011B0008091FE01807F09F04DC08091FD01882360
:1011C00009F448C0E091BE015091BF01C091F901FE
:1011D000D091F8016091FA017091FB0147E05E1730
:1011E000C9F18E2F90E0E49FF0011124E054FE4FEE
:1011F0002481222391F1489FF001499FF00D112491
:10120000DF01A054BE4F11962C9111972C1325C0CD
:101210002C912D1322C015962C91159721111DC0CC
:1012200012962D913C91261B370B283C3105A8F4D2
:101230008091FE018F7080618093FE01EA53FE4F22
:1012400080818F708061808388EF91E00E94BB066F
:101250000E94A308DF91CF910895FC013196E770B9
:10126000BECF482F2091BE019091BF0157E02913B6
:1012700002C080E0089530E0529FF001539FF00DCE
:101280001124E054FE4F8181681306C08081481309
:1012900003C085818111EECF2F5F3F4F2770E7CFCD
:1012A000A4E1B0E0E6E5F9E00C94851F8C0186E04E
:1012B000F801DE011F9601900D928A95E1F7F80181
:1012C0008481E58098EFA92E91E0B92E9091FC01E0
:1012D00091111FC08823D1F0EE20A9F0C8010E940F
:1012E0001407F82E882379F087E0F801D5010190E2
:1012F0000D928A95E1F7C5010E94EE030E94D6087F
:101300000E94C5085FC0C8010E94BB06FF24F39479
:1013100059C0C080D18082809380F090FD012091DF
:10132000FA013091FB01A401421B530BFF2009F489
:10133000F9C0483C510508F0A7C0882309F442C011
:101340009091F9018091FE01282F207F09F05CC067
:101350009D1116C09091F801C91212C0E1104EC043
:101360008F7080618093FE010E94C50888EF91E034
:101370000E94BB068091FE01F8018683F12C22C0F9
:10138000E1103CC06D2D8C2D0E9431096D2D8C2DEE
:101390000E943109E82E8111F1CFCF86D88A8F853E
:1013A00098890E947508292F22952F70243078F48F
:1013B0009F702230A8F09923B9F0F8019681907FB0
:1013C00099F4FE2C8F2D6496ECE00C94A11F2A5FFB
:1013D0002F70223068F0C8010E94BB06EF2CF1CFBD
:1013E000992311F0882369F3805E883050F3F3CF9E
:1013F000803F38F3815F833070F7E3CF8091FE0147
:1014000081608093FE01BACF9D1113C09091F801C5
:10141000C9120FC0E1100DC08683C8010E94BB062F
:1014200087E0F801A8EFB1E001900D928A95E1F70D
:1014300067CFC8010E941407882309F464CFEE2007
:1014400009F461CF8091FE01803288F02091F8018B
:101450003091F901398728879B868A869091FC0113
:101460009C871D868E87CE0108960E94BB0687E06A
:10147000F801A8EFB1E001900D928A95E1F70E9482
:10148000D6080E94C50842CF9091FE01292F207FE7
:10149000A1F4682D9A8A898AA6017A899E2D0E94D4
:1014A000210788EF91E00E94BB0687E0F5011192C9
:1014B0008A95E9F70E94C50861CF882309F482CF95
:1014C0008091F9018D1110C08091F801C8120CC0F3
:1014D000E1100AC09683C8010E94BB0687E0F501AF
:1014E00011928A95E9F76ECFC8010E9414078823EC
:1014F00009F409CFEE2009F406CF8091FE01803275
:1015000008F4B5CF2091F8013091F9013A8329838D
:101510009C828B829091FC019D831E828F83CE01E1
:101520000196A3CF483C5105B8F5882309F4EECEC7
:10153000FE2CEE2009F4E7CE8091F9018D111EC03A
:101540008091F801C8121AC08091FE0180FD0DC083
:10155000982F907F51F08683903F09F45ECF982FAB
:10156000907F905F8F70892B57CF87E0F801A8EFAD
:10157000B1E001900D928A95E1F724CFC8010E9455
:101580001407811174CF8091FE0181608093FE0168
:10159000C8010E94BB0616CF682D9A8A898AA601C7
:1015A0007A899E2D0E94210787E0F50111928A9584
:1015B000E9F7A6CEAEE0B0E0E0EEFAE00C948E1FC4
:1015C000288739874A875B876C877D878E87CE011E
:1015D00008960E9450098823B1F06C85662341F07B
:1015E000288539854A855B857D858E850E942B07F8
:1015F00017E08091BE019091BF0189133DC02E96E6
:10160000E3E00C94AA1F87E0FE013896DE011196F4
:1016100001900D928A95E1F78C85882349F32091FA
:10162000BF0130E0C9010196877099274091BE0142
:101630004817190699F097E0929FD001939FB00D3B
:101640001124A054BE4FFE01319601900D929A953F
:10165000E1F78093BF010E94A308CACF0E94F4065D
:101660001092BF011092BE0187E0E8EFF1E0DF01C8
:101670001D928A95E9F7BCCF819FC0011124805447
:101680009E4F0E945009882309F4B9CFE091BE0112
:101690001E9FF0011124E054FE4F208131814281D0
:1016A00053816481758186810E942B078091BE01E0
:1016B00090E00196877099278093BE019ACF809120
:1016C00027028695869586950895809127028770D2
:1016D000089590912702977081E009F480E00895C1
:1016E00080915302089590915302892B8093530265
:1016F00008958095909153029823909353020895F2
:1017000010925302089590915202892B80935202B5
:1017100008958095909152029823909352020895D3
:1017200010925202089508950E94930B089590918B
:101730002802292F282331F08095892380932802BD
:101740000E94940B089508950E94A30B0895909110
:101750002902292F2823281729F0982B9093290252
:101760000E94A40B089590912902292F282331F07B
:1017700080958923809329020E94A40B089580916B
:101780002902882329F01092290280E00E94A40BEC
:101790000895CF93C091530280915202C82B80913B
:1017A0002902882331F0C82B0E94AD1681110E94B6
:1017B000BF0B8C2FCF910895CF93DF93C09102017F
:1017C000D09103010E94C90B8883C0910201D0917E
:1017D000030148E050E06FE172E0CE010E94CA1FB1
:1017E000892B59F088E0FE01AFE1B2E001900D9243
:1017F0008A95E1F7CE010E943C16DF91CF910895C2
:10180000CF93DF93C0910001D09101010E94C90BD9
:101810008983C0910001D091010140E250E06FEF57
:1018200071E0CE010E94CA1F892B59F080E2FE01AF
:10183000AFEFB1E001900D928A95E1F7CE010E94E1
:101840004716DF91CF91089580911601882339F0D2
:1018500080918D0287FF03C00E94000C08950E94B2
:10186000DC0B089508950E94320C089590918E0229
:1018700092FF11C098E0899F90011124622B609320
:1018800027020E947D07809127028695869586957E
:101890000E94330C08950E947D070895109227023C
:1018A00080E00E94330C089590912702809589234F
:1018B00080932702282F277069F4891759F0909197
:1018C0008E0292FF07C08695869586950E948D07A9
:1018D0000E944E0C089590918E0292FB222720F9CF
:1018E000281769F080FB92F990938E0280918D0207
:1018F00090918E020E94B30C82E00E94540C0895D5
:1019000080918E0282FB882780F991E089270E94CE
:101910006B0C089581E00E946B0C089580E00E949A
:101920006B0C08956FEF7FEF90E080E00E941C2029
:10193000089590E080E00E94E81F21E0863E9E4FDF
:1019400009F020E0822F089582E090E00E94E01FDD
:10195000089583E090E00E94E01F089584E090E005
:101960000E94E81F0895BC0184E090E00E941C20C2
:101970000895AB01BC018FE090E00E941020089513
:10198000AB01BC0183E190E00E941020089560E06B
:1019900070E0CB010E94C00C089560E070E0CB01C4
:1019A0000E94B90C0E94C70C0895A8E0B0E0EBEDCE
:1019B000FCE00C948F1F66EE7EEF90E080E00E94CA
:1019C0001C2060E082E090E00E94FE1F81E090E039
:1019D0009093BD018093BC0161E083E090E00E94A0
:1019E000FE1F60E074E184E090E00E941C2060E053
:1019F00086E090E00E94FE1F6FEF87E090E00E947B
:101A0000FE1F40E050E0BA0188E090E00E94102004
:101A100060E084E290E00E94FE1F60E087E190E0D9
:101A20000E94FE1F60E08CE090E00E94FE1F60E0DC
:101A30008DE090E00E94FE1F19821A821B821C8298
:101A40001D821E821F82188648E050E068E170E027
:101A5000CE0101960E94EE1F40E050E0BA0180E204
:101A600090E00E9410200E94CD0C2896E2E00C9499
:101A7000AB1F0E94D50C0895682F8EE090E00E9465
:101A8000FE1F0895A6E0B0E0E8E4FDE00C948D1F91
:101A90000E9473188C018091540290915502801716
:101AA000910781F019821A820E947318682F498168
:101AB0005A81792F80E090E00E94BE031093550276
:101AC000009354022696E4E00C94A91F0E947F180C
:101AD0006093620270936302809364029093650244
:101AE00060935E0270935F02809360029093610244
:101AF0000895089508950E94790D089508950E940B
:101B00007E0D08958FE390E10E94E1110E947A0D0D
:101B10000E947B0D089581E008950E948B0D089529
:101B20000E948B0D0895089508950E94930D0E94C0
:101B3000940D08950E945E100E94920308950E94E1
:101B40006A180E9439110E949A0D0E947F0D089513
:101B5000A6E0B0E0EEEAFDE00C94831F0E948D0D3C
:101B600081110AC00E94420D0E9494140E94A50394
:101B70002696EEE00C949F1F0E944F1126E5822EC0
:101B800022E0922E640110E0F601E190F1906F01E5
:101B9000812F0E9484101F5F143009F44BC0E81697
:101BA000F90691F38091660281FD0E948D100E94DA
:101BB000900D782E10E066246394812F0E9484108B
:101BC0007C01F401A190B1904F018A159B0561F150
:101BD00000E0CC24C394D12CAE24BF24C5018C21B9
:101BE0009D21892BC1F07720B1F009831A830E94CF
:101BF00073189C838B836D8221E0C7018C219D210A
:101C0000892B09F420E049815A816B817C818D8187
:101C1000922F0E94BE030F5FCC0CDD1C0C30F1F63E
:101C2000F4013297F182E0821F5F143031F60E9496
:101C3000660D9ACFE816F90609F0B4CF93CF1F933B
:101C4000CF93DF930E944E0FEC01C11580E5D807BA
:101C5000F0F5C11580E4D80708F09CC0C03ED1055E
:101C600020F5CD3CD10508F082C0C83AD10578F402
:101C7000C53AD10508F073C0C130D10519F12097DC
:101C800009F1C430D105F0F4D0E0C0E01BC0C33C82
:101C9000D105D0F7C85AD0E0CC0FDD1FC05BDE4FB6
:101CA0000990D881C02DD4640DC0C11580E2D80739
:101CB00008F0D1C0C11581E0D80708F05AC0C83E6D
:101CC000D10510F7CE01DF91CF911F910895C03655
:101CD00082E5D80718F5C03482E5D80708F06BC054
:101CE000C03282E5D80708F05FC0C11582E5D80789
:101CF00008F497C02C2F2695269580E2289F900106
:101D000011248C2F8370C1E0D0E002C0CC0FDD1F06
:101D10008A95E2F7C22BD32BDD68D4CFC03A82E597
:101D2000D80760F4C03882E5D80708F459C0CF71ED
:101D3000D0E0DC2FCC27C46FD06AC4CFC03C82E592
:101D4000D80708F462C0C03E82E5D80708F09CCFEF
:101D5000DC2FCC27CC27DF71C06FD06AB3CFC55A38
:101D6000D0E0CA57DE4FC881D0E0D064ABCFD06599
:101D7000A9CF8D2F0E94F00F182FCE0199270E9416
:101D80004E0FC12FD0E0DC2FCC27CC27DF71C82B22
:101D9000D92B98CFCE0199270E944E0FCC27DF7008
:101DA000C82BD92BD06A8ECFCF71D0E0DC2FCC27B7
:101DB000C16FD06A87CF2C2F26952695277080E299
:101DC000289F900111248C2F8370C1E0D0E002C0C5
:101DD000CC0FDD1F8A95E2F7C22BD32BDC6872CFC4
:101DE0002C2F26952695277080E2289F900111249C
:101DF0008C2F8370C1E0D0E002C0CC0FDD1F8A952C
:101E0000E2F7C22BD32BDA685DCF8C2F8F710E9443
:101E1000F00FC82FD0E0DC2FCC27CC27DF71D062A9
:101E200051CF8C2F8F710E94F00F55E0D695C7953A
:101E30005A95E1F7CF70D0E0DC2FCC27282F30E087
:101E400084FF05C044E0220F331F4A95E1F7C22BFF
:101E5000D32BD06937CF8D2F8F710E94F00F182FA1
:101E6000CE0199270E944E0FC12FD0E0DC2FCC2746
:101E7000CC27DF71C82BD92BD2CF462F743030F44A
:101E80006C3020F4672F0E949702089590E080E064
:101E900008950E943D0F0E941F0E089582389105FB
:101EA000B9F1B0F48133910509F47DC048F4893269
:101EB000910509F46DC08A32910509F47BC008953B
:101EC0008533910509F45FC08933910509F10895BF
:101ED000833E9105D9F138F4803E910529F1823E87
:101EE000910579F10895863E9105D9F1873E9105D6
:101EF00009F43EC0843E910541F520918E0221FFF8
:101F000024C080918D0284FD19C087EE90E0089571
:101F100020918D02237009F05AC020918E0223FF78
:101F200014C089E290E0089520918D0220FD38C010
:101F300030918E0230FF09C024FF43C090E080E062
:101F4000089520918D0222FDF7CF089520918D02F2
:101F500022FD3AC030918E0230FD39C024FFF5CF0A
:101F6000EDCF20918D0223FFF0CF24FDE7CFCDCF21
:101F700020918D0223FD2EC030918E0231FFEECFD5
:101F800084EE90E0089520918D0225FFDECFC9CF29
:101F900020918D0225FD21C020918E0223FFD5CFF7
:101FA00089E390E0D2CF20918D0226FFCECF8AE246
:101FB00090E0089520918D0226FFC7CF81E390E045
:101FC000089583EE90E0089582EE90E0089580EE0B
:101FD00090E0089586EE90E0089585E390E00895FE
:101FE00090918D0292FF10C041E0282F247124307F
:101FF00009F040E031E0282F2871283009F030E066
:10200000431711F02CE0822793FF10C041E0282FE6
:102010002471243109F040E031E0282F2871283163
:1020200009F030E0431711F02CE0822730918E0246
:1020300030FF10C051E0282F2171213009F050E00D
:1020400041E0282F2871283009F040E0541711F0A2
:1020500029E0822731FF10C041E0282F2171213172
:1020600009F040E031E0282F2871283109F030E0F4
:10207000431711F029E0822794FD877E089580E0C0
:1020800008950E94920C08950E944F112FEF86E749
:1020900091E0215080409040E1F700C000000E9494
:1020A0004F1180E00E94841080FF04C00E94411004
:1020B0000E94BE1808950E94441008950E94990C31
:1020C000811102C00E94390D0E94A40C8093660207
:1020D0000E94AE0C90938E0280938D020E945B1042
:1020E0000E94A90C90E00E9441078091BA01909152
:1020F000BB010E946207089508950E947C10089514
:1021000008950E9480100895E82FF0E0EE0FFF1F61
:10211000E956FD4F808191810895089580EA8A955E
:10212000F1F7089500C008950E948E100895F89464
:10213000E82FE295EF70F0E031A1282F2F7081E0B9
:1021400090E001C0880F2A95EAF7982F9095932385
:1021500091A392A1892B82A378940895CF93DF93C2
:1021600086EF0E94971083E30E94971082E30E94FB
:10217000971086E30E949710C9E8D1E089918F3FBC
:1021800011F00E94971081E0C539D807B9F7DF91A7
:10219000CF910895AF92BF92DF92EF92FF920F938B
:1021A0001F93CF93DF938C01D62EC62FD0E0CE01A4
:1021B0008B569E4F7C01FC0120812F3F09F44CC0BF
:1021C000F894E22FE295EF70F0E031A12F7081E0FA
:1021D00090E001C0880F2A95EAF7932F982B91A3DE
:1021E00092A18095892382A378940E949210E9E8B5
:1021F000F1E041E050E0B12CA12C21912F3FB1F151
:10220000A22FA295AF70B0E090968C9190E02F70C5
:1022100002C0959587952A95E2F780FD27C0CA01EF
:10222000A82AB92A440F551F81E0E539F80729F794
:10223000F70180818F3F11F00E94971061E0A11497
:10224000B10409F460E08D2D0E949410CC0FDD1FC5
:10225000C00FD11FB982A882DF91CF911F910F913A
:10226000FF90EF90DF90BF90AF90089590E080E0F6
:10227000D7CF0E94AE1088E0E7E9F2E0DF01982FA7
:102280001D929A95E9F7EFE8F2E0DF011D928A9539
:10229000E9F784E00E948A110E947D100895A8E069
:1022A000B0E0E5E5F1E10C948C1F8E010F5F1F4F4C
:1022B00088E0F80111928A95E9F7F12C6F2DC80199
:1022C0000E94CA10F394F4E0FF12F8CF48E050E007
:1022D000B8018FE892E00E94CA1F21E0009709F43C
:1022E00020E0892B41F088E0F801AFE8B2E00190EE
:1022F0000D928A95E1F744E067E972E08FE892E099
:102300000E948B11182F0E948110812F2896E5E0E2
:102310000C94A81F0895B0E0A0E0E1E9F1E10C946D
:10232000891F6C017B01042FC22F222379F081E0E9
:10233000809369020E9473189093680280936702E9
:1023400080E0CDB7DEB7E8E00C94A51FD09169021C
:10235000DD23B1F380916702909168020E948B188F
:10236000059770F310E0000F111FA801B601C70117
:102370000E94CA1F892B31F0A801B601C7010E9433
:10238000D71FCD2F109269028C2FDBCF0E943B1AF2
:102390000E949F0D0E94481A08950E944D1A0E94A3
:1023A000A80D0E94671A08950E940C180E94211A15
:1023B0000E94820D0E94C6110E94CD110E94950DAF
:1023C000FBCF90939B0180939A010895CF93DF9365
:1023D000EB0186319C4711F50E94700B9D8199237A
:1023E00099F08A7A91E009F490E090936A02811161
:1023F00009C089E20E9458170E94240C80E0DF91F6
:10240000CF91089585E3F6CF80916A02811104C0CF
:1024100089E20E946F17F0CF85E3FBCF81E0EFCF19
:10242000CF93DF93EC01FB018581882309F4D2C0AF
:102430009E0130572332310508F0B2C00E94AE0C25
:1024400090938E0280938D02FE01E150F047E232BC
:10245000F10520F4E05CFF4D0C94791F80918D0212
:10246000816080938D0293C080918E0288608093FA
:102470008E028DC080918D028260F3CF80918D029B
:102480008460EFCF80918D028860EBCF80918E02C7
:102490008160EDCF80918E028260E9CF80918D02C4
:1024A0008061DFCF80918D028062DBCF80918D02D1
:1024B0008064D7CF0E94F40680918D028068D1CFCE
:1024C00080918D028C60CDCF80918E028360CFCFC2
:1024D00080918D028E7FC5CF80918E02877FC7CF7E
:1024E00080918D028D7FBDCF80918D028B7FB9CF82
:1024F00080918D02877FB5CF80918E028E7FB7CF7E
:1025000080918E028D7FB3CF80918D028F7EA9CF77
:1025100080918D028F7DA5CF80918D028F7BA1CF81
:102520000E94F40680918D028F779BCF80918D025F
:10253000837F97CF80918E028C7F99CF80918D027F
:1025400082FB992790F921E0922790FB82F990FB7A
:1025500083F987CF80918E02982F909591708E7F0E
:10256000892B90FB81F983CF90918D02892F8F7BEE
:1025700096FF806476CF0E94F40690918D02892F99
:1025800097FB87F980586DCF81E00E943C0D8091C8
:102590008D0290918E020E94B30C0E94F40680E09E
:1025A000DF91CF91089580E0F0CF90918D02892F37
:1025B0008F7E94FF806155CF90918D02892F8E7F01
:1025C00090FF81604ECF90918E02892F877F93FF7D
:1025D00088604DCF81E0E4CF282F35EB2303C00185
:1025E000112497FF04C080589109892F08958058BD
:1025F0009F4FFBCF8091710280FF0DC06091090158
:1026000070E0660F771F6038710570F56115710510
:1026100069F1862F089581FF07C06091090184E068
:10262000689FB0011124EFCF6091090182FD0AC0BB
:10263000809170028823A9F020910801609109011E
:10264000821710F088E0ECCF869FC001112433E0A0
:10265000880F991F3A95E1F7622F70E00E94651F7D
:10266000D2CF68E070E0D5CF8FE7089581E008957C
:102670008091710280FF0CC06091050170E075953A
:102680006795759567956115710549F1862F0895D0
:1026900081FF06C06091050170E075956795F3CFE5
:1026A0006091050182FD0BC090916F029923A1F00A
:1026B0006091040180910501961738F0682F70E051
:1026C0006038710500F38FE70895899FC0011124D8
:1026D00070E00E94651FF4CF61E070E0D7CF81E029
:1026E00008959091740220917502922B20917702A7
:1026F000922B20917602922B31F098E09093700209
:1027000091E090936F028D3C31F40E94FA12819512
:102710008093750208958E3C19F40E94FA12F8CF46
:102720008F3C31F40E94FA128195809374020895CF
:10273000803D19F40E94FA12F8CF893D29F40E94D5
:1027400038138093760208958A3D21F40E9438134D
:102750008195F7CF8B3D31F40E943813819580939A
:10276000770208958C3D19F40E943813F8CF9FE248
:10277000980F983070F4815D990B21E030E001C032
:10278000220F8A95EAF780917302822B809373025D
:1027900008958D3D31F480917102816080937102C2
:1027A00008958E3D21F4809171028260F7CF8F3DB4
:1027B000B9F7809171028460F1CF409174028D3C31
:1027C00059F48091750287FF0DC010927502411176
:1027D0000BC01092700208C08E3C81F4809175028B
:1027E00018169CF3442381F0809176029091770231
:1027F000892B09F05AC010926F0208958F3C49F45A
:1028000047FFF0CF10927402809175028111ECCFD6
:10281000E0CF803D19F41416ACF3E4CF909176022A
:10282000893D29F41916F4F610927602DBCF8A3D21
:1028300019F497FFD7CFF8CF909177028B3D29F409
:1028400097FFD0CF10927702CDCF8C3D19F4191697
:10285000CCF3C8CF9FE2980F983090F4815D990B2C
:1028600021E030E0B90102C0660F771F8A95E2F7D8
:10287000CB01809590917302892380937302B2CF2C
:102880008D3D31F4809171028E7F80937102AACFC9
:102890008E3D21F4809171028D7FF7CF8F3D09F03D
:1028A000A1CF809171028B7FF0CF08950E947318A1
:1028B0009C019091740280917502982B21F03093C5
:1028C0006E0220936D029091760280917702982B90
:1028D00021F030936C0220936B0282E792E00E9419
:1028E0005516089586E0E2E7F2E0DF011D928A9531
:1028F000E9F71092700210926F021092710208951F
:10290000FC01828181110EC0838181110BC0848101
:10291000811108C091E08581811101C090E0892F6B
:102920008170089581E0FCCFA6E0B0E0EAE9F4E12F
:102930000C948E1F86E0E2E7F2E0DE011196019032
:102940000D928A95E1F7109274021092750210921E
:102950007602109277028B819C81892B89F080917D
:102960006D0290916E020E948B18AC0190917002E2
:102970009923C9F180910A018417150608F440C013
:102980008D819E81892B91F080916B0290916C02D8
:102990000E948B18AC0190916F02992309F46AC0D0
:1029A000809106018417150608F472C0BE016F5F9E
:1029B0007F4F82E792E00E94A017811105C082E755
:1029C00092E00E94801481110E94561486E0FE015C
:1029D0003196A2E7B2E001900D928A95E1F7269632
:1029E000E3E00C94AA1F20910B018AE0289F90013C
:1029F00011242417350720F69F5F9093700202C0C0
:102A00009F3FD1F71B81112359F00E94FA129FEFCB
:102A100011160CF491E0899F802D1124809374028B
:102A20001C81112359F00E94FA129FEF11160CF429
:102A300091E0899F802D112480937502809174020A
:102A4000882309F49DCF10917502112309F498CFC2
:102A50000E94EC12882351F080937402812F0E940F
:102A6000EC12882329F0809375028ACF81E0F4CF9D
:102A700081E0F9CF209107018AE0289F900111247D
:102A80002417350708F092CF9F5F90936F0202C022
:102A90009F3FD1F71D81112359F00E9438139FEFFA
:102AA00011160CF491E0899F802D112480937602F9
:102AB0001E81112359F00E9438139FEF11160CF458
:102AC00091E0899F802D1124809377028091760276
:102AD000882309F46BCF10917702112309F466CF94
:102AE0000E94EC12882351F080937602812F0E947D
:102AF000EC12882329F08093770258CF81E0F4CF3D
:102B000081E0F9CF0F931F93CF93DF93C42FD22F80
:102B1000FC0185818823C9F040937A020E947318D2
:102B2000909379028093780280E28C0F883040F491
:102B3000C77081E001C0880FCA95EAF70E949E0421
:102B4000DF91CF911F910F91089510917A02141384
:102B500032C080917802909179020E948B18883C53
:102B6000910548F5C0E2CD0F1D17B9F080E2810F45
:102B7000883040F4177081E001C0880F1A95EAF799
:102B80000E94A504C83048F481E09D2F977001C0D1
:102B9000880F9A95EAF70E949E04802F0E94950460
:102BA000C83070F6D77081E001C0880FDA95EAF777
:102BB0000E94A504C5CF80E28C0F883008F6C7704C
:102BC00081E001C0880FCA95EAF7F2CF0F93DB01CD
:102BD00088519C4787309105A0F5FC01EE59FF4DC7
:102BE0000C94791F06E221EE41EE6AE17CE7CD010B
:102BF0000E94821580E00F91089507E225EE45EED0
:102C00006BE17CE7F4CF06E221EE40EE68E17CE781
:102C1000EECF07E225EE44EE69E17CE7E8CF06E27D
:102C200021EE42EE6CE17CE7E2CF07E225EE46EED4
:102C30006DE17CE7DCCF08E221E045EE6EE17CE768
:102C4000D6CF15968C91882319F010927A02D3CFA3
:102C500081E0D1CF9093800280937F020895E0912C
:102C60007F02F0918002309729F00190F081E02DF1
:102C70000995089580E00895E0917F02F091800227
:102C8000309721F00280F381E02D09950895E091BD
:102C90007F02F0918002309739F026E0DC012C931E
:102CA0000480F581E02D09950895E0917F02F0916F
:102CB0008002309739F022E0DC012C930680F78106
:102CC000E02D09950895A3E0B0E0E9E6F6E10C9463
:102CD0008F1F20917D0230917E0228173907A1F0C5
:102CE00090937E0280937D02E0917F02F0918002BA
:102CF000309751F023E029839B838A830084F185F8
:102D0000E02DCE01019609952396E2E00C94AB1FCD
:102D1000A3E0B0E0EEE8F6E10C948F1F20917B0277
:102D200030917C0228173907A1F090937C028093A0
:102D30007B02E0917F02F0918002309751F024E015
:102D400029839B838A830084F185E02DCE0101963F
:102D500009952396E2E00C94AB1F2091020130917B
:102D600003012E5F3F4F80911601882379F08091F7
:102D70008D0287FF0BC020910001309101012E5F71
:102D80003F4F9EE180E0915018F4089596E0FACF0D
:102D9000F90141919F014423B1F38F5FF4CF882360
:102DA00021F190911601992311F190918D0297FFD5
:102DB0001EC0E82FE695E695E695EE31B0F4209139
:102DC000000130910101E20FF32FF11D228130E06B
:102DD000877041E050E002C0440F551F8A95E2F72A
:102DE0002423352381E0232B91F480E00895209162
:102DF000020130910301F9013296285F3F4F919112
:102E0000981721F0E217F307D1F7EFCF81E008958B
:102E10009C01FC0132969FEF80E04191461751F0F2
:102E20009F3F19F4411101C0982F8F5F8630A9F799
:102E30009F3F09F40895290F311D97FD3A95F90137
:102E400062830895FC01329608962191261303C0EF
:102E5000DF0111971C92E817F907B9F70895E62FDB
:102E6000E695E695E695EE3168F4E80FF92FF11D49
:102E7000677021E030E001C0220F6A95EAF7828195
:102E8000822B82830895E62FE695E695E695EE314E
:102E900070F4E80FF92FF11D677021E030E001C0F8
:102EA000220F6A95EAF720958281282322830895CC
:102EB000682F80911601882359F080918D0287FF39
:102EC00007C080910001909101010E942F17089581
:102ED00080910201909103010E9408170895682FC4
:102EE00080911601882359F080918D0287FF07C0D9
:102EF00080910001909101010E94431708958091F3
:102F00000201909103010E942217089580911601F9
:102F1000882379F080918D0287FF0BC0E09100013A
:102F2000F091010132968EE1DF011D928A95E9F759
:102F30000895E0910201F0910301329686E0F4CF0A
:102F4000DC01FB0111969C9111978181981322C09D
:102F500012968C911297882319F0928189131AC0C6
:102F600013968C911397882319F09381891312C0BB
:102F700015968C911597882319F0958189130AC0AD
:102F800014969C91992321F081E02481291303C098
:102F900080E001C081E08170089508950E94CD17FE
:102FA0000895811106C081E0809381020E94CE17AE
:102FB000089582E0F9CF83E0809381020E94CE17CA
:102FC00008950E94D117089581E0809381020E94A4
:102FD000CE1708950E94E4170895089508950E9459
:102FE000EE170895089508950E94ED170895CF9360
:102FF0000E94F2170E944F110E94F317C0E08C2F1D
:103000000E948410892B31F4CF5FC430C1F780E077
:10301000CF91089581E0FCCF85B7806885BF85B7E3
:10302000806885BF08951F921FB61F9211248F9349
:103030009F93AF93BF9380918202811113C08091BF
:103040009F029091A002A091A102B091A20241968C
:10305000A11DB11D80939F029093A002A093A10295
:10306000B093A202BF91AF919F918F911F901FBE0D
:103070001F9018958091A702843031F10E9475034A
:103080001092820288E190E020E40FB6F894A895AF
:10309000809360000FBE2093600083B7817F8460BF
:1030A00083BF83B7816083BF7894889583B78E7F11
:1030B00083BF0FB6F894A8958091600088618093D3
:1030C0006000109260000FBE08950E94F4060E94F6
:1030D0007A03089582E084BD93E095BD9AEF97BD91
:1030E00080936E0008952FB7F89480919F0290917D
:1030F000A002A091A102B091A2022FBF08952FB704
:10310000F89460919F027091A0028091A102909129
:10311000A2022FBF08959C014FB7F89480919F029F
:103120009091A002A091A102B091A2024FBF821B78
:10313000930B089578941F921FB61F9211248F93BA
:103140009F93AF93BF9380919F029091A002A09113
:10315000A102B091A2020196A11DB11D80939F0210
:103160009093A002A093A102B093A202BF91AF914D
:103170009F918F911F901FBE1F90189587E797E72B
:10318000909301088093000888E19AE00FB6F894C4
:10319000A895809360000FBE90936000FFCF88E1F8
:1031A0009AE00FB6F894A895809360000FBE9093B4
:1031B0006000FFCF80918B0208959B01BA0190912E
:1031C000A7029430E9F48F708093E9009FEF80911B
:1031D000E800915085FD06C085ED8A95F1F7000065
:1031E0009111F5CF8091E80085FF0AC050E040E0E2
:1031F000C9010E94DE1A8091E8008E778093E80072
:10320000089543E050E0BC0182E00E94DD1808957B
:1032100046E050E0BC0182E00E94DD18089540E2E3
:1032200050E0BC0182E00E94DD180895CF93DF9347
:10323000EC0148E050E0BC0181E00E94DD1888E02C
:10324000FE01A3E8B2E001900D928A95E1F7DF91CB
:10325000CF9108958091A602811109C00E946E1C31
:103260000E94CB1C8091E20084608093E20008956C
:103270001092A60208950E94E41708956091A30297
:1032800081E0611101C080E00E94DB1708959091F8
:10329000A70281E0943009F080E06091A3020E94CF
:1032A000E117089542E061EC81E00E94EA1B42E2EE
:1032B00061EC82E00E94EA1B9091A70281E09430C9
:1032C00009F080E06091A3020E94D11708958091D7
:1032D000A902833009F461C030F48130D1F1823029
:1032E00009F49EC008958A3009F48AC08B3009F42D
:1032F0006FC0893009F050C08091A802813209F076
:103300004BC08091AC029091AD02029708F044C08E
:103310008091E800877F8093E8008091E80082FF39
:1033200037C09091F3008091F200029731F48091C0
:10333000F100813011F0863021F48091F10080930A
:103340008B028091E8008B778093E8000E941E1C1E
:1033500023C08091A802813AF9F48091E800877F28
:103360008093E8008091AC029091AD02892B61F4CA
:1033700068E083E892E070E00E942D1B8091E800F5
:103380008B778093E800089560E090E080E0F3CFD1
:103390008091A7028111C1CF08958091A802813A3E
:1033A000D9F78091AC029091AD02892BA9F7809159
:1033B000E800877F8093E8008091E80080FFFCCFE1
:1033C000809116018093F1008091E8008E77BCCF48
:1033D0008091A802813201F78091AC029091AD02F8
:1033E000892BD1F68091E800877F8093E8000E94C6
:1033F0001E1C8091AA02809316010E94F406089573
:103400008091A802813241F68091E800877F809305
:10341000E8000E941E1C8091AB0280938C020895EC
:103420008091A802813A09F0B7CF8091E800877FA8
:103430008093E8008091E80080FFFCCF80918C02AF
:10344000C1CF84B7877F84BF0FB6F894A8958091C9
:103450006000886180936000109260000FBE80E879
:1034600090E00FB6F89480936100909361000FBED6
:103470000E94EA1708950E946E1C0E94CB1CE2EE87
:10348000F0E080818460808378940E944A1F0895D0
:103490008CE091E00E942A1608958091A702853061
:1034A00031F48091A702853019F00E9465180895C3
:1034B0000E943A188091A502882399F30E94F71779
:1034C000882379F30E94C81A0E94F406EACF08956F
:1034D0009A014091AE025091AF020E94701A089575
:1034E000492F55274330510519F168F441305105F2
:1034F00009F444C04230510509F445C090E080E031
:1035000050E040E025C04132510549F142325105B9
:10351000A9F784E490E043E754E061157105C1F038
:1035200086EB90E04DEB53E06130710589F0E6CF1A
:1035300099278130910581F0009729F00297F1F6E3
:10354000ECE4F3E002C0ECE6F3E0849190E0AF013C
:10355000F901518340830895ECE5F3E0F6CF89E06B
:1035600090E042E853E06115710591F389E090E045
:103570004BE953E06130710559F3C0CF82E190E02F
:103580004BEA53E0E5CF8BE390E040E753E0E0CF38
:1035900080E189BD82E189BD09B400FEFDCF809143
:1035A000D8008F7D8093D8008091E0008260809366
:1035B000E0008091E00081FDFCCF0895AF92BF92C2
:1035C000CF92DF92FF920F931F93CF93DF936C0103
:1035D000EB018A010E943D1CF82E811123C00115C8
:1035E000110539F0F80180819181C81BD90BC80EF3
:1035F000D91EB12CA12C2097A9F08091E80085FD5F
:1036000022C08091E8008E778093E80001151105B3
:10361000A1F0F80180819181A80EB91EB182A0822B
:1036200085E0F82E8F2DDF91CF911F910F91FF90A4
:10363000DF90CF90BF90AF9008950E943D1C8823EB
:10364000D1F2F82EEFCFF60181916F018093F10056
:103650002197FFEFAF1ABF0ACECFFC018091AE02D7
:103660009091AF0286179707A0F06115710529F4B4
:103670009091E8009E779093E80090E061157105C5
:1036800051F4911108C08091E80082FF34C080E0BD
:103690000895BC01F2CF8091A7028823C1F1853043
:1036A000C1F18091E80083FD30C08091E80082FD87
:1036B000EACF8091E80080FFE1CF8091F300209174
:1036C000F200382F6115710519F02830310558F0D6
:1036D00091E02830310509F090E02091E8002E7744
:1036E0002093E800CBCF81918093F1006150710964
:1036F0002F5F3F4FE7CF8091A702882341F08530AD
:1037000041F08091E80083FFBECF81E0089582E020
:10371000089583E00895FC018091AE029091AF027C
:1037200086179707A0F06115710529F48091E800CC
:103730008E778093E80090E06115710551F4911146
:1037400008C08091E80082FF35C080E00895BC0188
:10375000F2CF8091A7028823C9F18530C9F1809109
:10376000E80083FD31C08091E80082FDEACF8091BE
:10377000E80080FFE1CF8091F3002091F200382F24
:103780006115710519F02830310558F091E02830A5
:10379000310509F090E08091E8008E778093E80091
:1037A000CBCF84918093F1003196615071092F5FE6
:1037B0003F4FE6CF8091A702882341F0853041F04A
:1037C0008091E80083FFBDCF81E0089582E00895F5
:1037D00083E00895982F973028F08F708093E90048
:1037E00081E008959093E900242F762F50E09817F8
:1037F00031F07091EC002091ED005091F00021FD2E
:1038000002C09F5FE8CF3091EB003E7F3093EB002A
:103810003091ED003D7F3093ED003091EB00316051
:103820003093EB007093EC002093ED005093F00088
:103830002091EE0027FDE5CF80E008958091A80259
:1038400087FF13C08091E80082FF06C08091E800E6
:103850008B778093E80004C08091A7028111F2CF9A
:1038600008958091A7028823D9F38091E80080FF12
:10387000F8CF8091E8008E77ECCF2091E400309172
:10388000E50095E6A9012091EC00822F817020FFD0
:1038900006C08091E80080FF06C080E00895209176
:1038A000E80022FD1AC08091A702882389F08530A4
:1038B00089F08091EB0085FD0FC02091E4003091EC
:1038C000E50042175307F9F29150E1F684E00895BC
:1038D00082E0089583E0089581E008950E94DD1C50
:1038E0000E94E51CE0EEF0E0808181608083E8EDDD
:1038F000F0E080818F77808319BCA7EDB0E08C91D8
:103900008E7F8C9380818F7E80831092A602089593
:103910000F931F93CF93DF930E94DD1C0E94E51C41
:10392000C8EDD0E088818F7788838881806888831C
:1039300088818F7D888319BC1092A7021092A30200
:103940001092A5021092A40200EE10E0F80180810E
:103950008B7F808388818160888342E060E080E0A3
:103960000E94EA1BE1EEF0E080818E7F8083E2EE30
:10397000F0E0808181608083808188608083F801AD
:1039800080818E7F8083888180618883DF91CF9161
:103990001F910F910895E8EDF0E080818F7E808384
:1039A000E7EDF0E080818160808384E082BF81E088
:1039B0008093A6020E94881C0895E8EDF0E08081C3
:1039C0008E7F80831092E20008951092DA001092A8
:1039D000E10008951F920F920FB60F9211242F93BA
:1039E0003F934F935F936F937F938F939F93AF9387
:1039F000BF93EF93FF938091E10082FF0BC0809112
:103A0000E20082FF07C08091E1008B7F8093E1009C
:103A10000E94491F8091DA0080FF19C08091D80070
:103A200080FF15C08091DA008E7F8093DA0080914C
:103A3000D90080FF96C080E189BD82E189BD09B4CB
:103A400000FEFDCF81E08093A7020E942A19809199
:103A5000E10080FF19C08091E20080FF15C08091D5
:103A6000E2008E7F8093E2008091E200806180938B
:103A7000E2008091D80080628093D80019BC85E074
:103A80008093A7020E943E198091E10084FF2BC021
:103A90008091E20084FF27C080E189BD82E189BD79
:103AA00089B5982F917080FFFBCF8091D8008F7DD2
:103AB0008093D8008091E1008F7E8093E100809117
:103AC000E2008F7E8093E2008091E200816080932B
:103AD000E2008091A302882309F449C084E0809326
:103AE000A7020E9447198091E10083FF29C08091BD
:103AF000E20083FF25C08091E100877F8093E10091
:103B000082E08093A7021092A3028091E1008E7F51
:103B10008093E1008091E2008E7F8093E2008091AB
:103B2000E20080618093E20042E060E080E00E9479
:103B3000EA1B8091F00088608093F0000E943B199E
:103B4000FF91EF91BF91AF919F918F917F916F9175
:103B50005F914F913F912F910F900FBE0F901F904B
:103B6000189519BC1092A7020E94381970CF809145
:103B7000E30087FD93E09093A702B3CF1F920F92CB
:103B80000FB60F9211242F933F934F935F936F9330
:103B90007F938F939F93AF93BF93CF93DF93EF93D5
:103BA000FF93D091E900DF708091EC00C82FC170C5
:103BB00080FDC0E81092E9008091F000877F80933B
:103BC000F00078940E94021E1092E9008091F000AB
:103BD00088608093F000CD2BCF70C093E900FF91F7
:103BE000EF91DF91CF91BF91AF919F918F917F9195
:103BF0006F915F914F913F912F910F900FBE0F905A
:103C00001F901895AAE2B0E0E8E0FEE10C948E1F48
:103C100088EA92E02091F100FC012193CF01F2E0CB
:103C2000803B9F07B9F70E9467198091E80083FFE6
:103C30001EC18091A8029091A9029A3008F017C184
:103C4000E92FF0E0E759FF4D0C94791F803899F087
:103C5000823809F00CC18091AC028F70873008F077
:103C600006C18093E9008091EB0085FB882780F9ED
:103C70001092E90006C08091A4029091A5029111D2
:103C800082609091E800977F9093E8008093F10024
:103C90001092F1008091E8008E77E5C0882309F446
:103CA000D3C0823009F0E3C08091AA028111D6C04E
:103CB0008091AC028F702FEF280F263008F0D7C00C
:103CC0008093E9002091EB0020FFC8C0933031F4CD
:103CD0008091EB0080628093EB00C0C09091EB007C
:103CE00090619093EB0021E030E001C0220F8A95B3
:103CF000EAF72093EA001092EA008091EB008860D6
:103D0000EACF8111B4C01091AA021F778091E3001D
:103D10008078812B8093E3008091E800877F8093F7
:103D2000E8000E941E1C8091E80080FFFCCF80917B
:103D3000E30080688093E30082E0111183E08093C8
:103D4000A70295C08058823008F091C08091AA02E5
:103D50009091AB028C3D23E09207A1F583E08A832A
:103D60008AE289834FB7F894DE01139620E03EE0A3
:103D700051E2E32FF0E050935700E49120FF03C09D
:103D8000E295EF703F5FEF708E2F90E0EA30C0F069
:103D9000C7968D939D932F5F243159F74FBF809124
:103DA000E800877F8093E8006AE270E0CE01019628
:103DB0000E942D1B8091E8008B778093E80057C00C
:103DC000C096E7CF6091AC027091AD02AE014F5F3B
:103DD0005F4F0E94681ABC01892B09F448C090917A
:103DE000E800977F9093E80089819A810E948B1B5D
:103DF000E1CF8038E1F58091E800877F8093E8008B
:103E00008091A3028093F10045CF811130C0909141
:103E1000AA02923060F58091E800877F8093E800E5
:103E20009093A3020E941E1C8091A302882311F08C
:103E300084E005C08091E30087FDFACF81E08093A4
:103E4000A7020E94521913C08091AA02813079F40E
:103E500081E0933009F080E08093A5021092E900A0
:103E60008091E800877F8093E8000E941E1C80916B
:103E7000E80083FF0AC08091E800877F8093E80014
:103E80008091EB0080628093EB00AA96E3E00C94B3
:103E9000AA1F0895CF938091A7028823A1F0C09113
:103EA000E900CF709091EC00892F817090FD80E83F
:103EB000C82B1092E9008091E80083FD0E94021E49
:103EC000CF70C093E900CF91089597FB072E16F4A9
:103ED000009407D077FD09D00E94B61F07FC05D0DB
:103EE0003EF4909581959F4F0895709561957F4F11
:103EF0000895EE0FFF1F0590F491E02D09942F9285
:103F00003F924F925F926F927F928F929F92AF9269
:103F1000BF92CF92DF92EF92FF920F931F93CF93B6
:103F2000DF93CDB7DEB7CA1BDB0B0FB6F894DEBF4D
:103F30000FBECDBF09942A88398848885F846E8473
:103F40007D848C849B84AA84B984C884DF80EE80BD
:103F5000FD800C811B81AA81B981CE0FD11D0FB6C6
:103F6000F894DEBF0FBECDBFED010895AA1BBB1BA9
:103F700051E107C0AA1FBB1FA617B70710F0A61B69
:103F8000B70B881F991F5A95A9F780959095BC018A
:103F9000CD010895FB01DC0104C08D9101908019D1
:103FA00021F441505040C8F7881B990B0895FB013C
:103FB000DC0102C001900D9241505040D8F70895A5
:103FC000F999FECF92BD81BDF89A992780B50895E1
:103FD000A8E1B0E042E050E00C942420DC01A40F02
:103FE000B51F4150504048F0CB01840F951F2E91D2
:103FF0000E94FF1F41505040D0F70895262FF99995
:10400000FECF92BD81BDF89A019700B4021639F037
:104010001FBA20BD0FB6F894FA9AF99A0FBE089508
:104020000396272F0E94FF1F0E94FE1F252F0E942C
:10403000FF1F242F0C94FF1F0196272F0E94FF1FA4
:104040000C94FE1FDC01CB01FC01F999FECF06C0E8
:10405000F2BDE1BDF89A319600B40D924150504046
:10406000B8F70895F894FFCFED04ED043D053D0544
:10407000A205BE051C051C05C30534064306430600
:104080006812DC1270123A123E1274124212781246
:1040900084124E12D5125212881256128C12B41279
:1040A0005A129012BB12601296129E1246127C1285
:1040B0004A12801264129A12AA12C412D312341233
:1040C0006C12E31203160916F215FD150F161516DC
:1040D0001B16261E4E1E371F4E1E371F811EA21E88
:0640E000371FF91E051F49
:1040E6002A024A02280850011E0A1401DA18161973
:1040F6000F190819011901E200E900EA00B500B636
:1041060000B700CD008301CC008A01920194012101
:1041160002230224022502260227022A02B300B441
:10412600006F0070009F01CB019F02A00281828375
:10413600E200E900EA00B500B600B700CD00830151
:10414600CC008A0192019401210223022402250255
:10415600260227022A02B300B4006F0070009F01F6
:10416600CB019F02A002818283F4F53534C697669F
:0A4176009490919293F633323600D4
:00000001FF
